
/home/lenovo/riscv-compliance/work/rv32imc/C-JAL.elf:     file format elf32-littleriscv


Disassembly of section .text.init:

80000000 <_start>:
80000000:	a081                	j	80000040 <reset_vector>
80000002:	0001                	nop

80000004 <trap_vector>:
80000004:	34202f73          	csrr	t5,mcause
80000008:	4fa1                	li	t6,8
8000000a:	03ff0663          	beq	t5,t6,80000036 <write_tohost>
8000000e:	4fa5                	li	t6,9
80000010:	03ff0363          	beq	t5,t6,80000036 <write_tohost>
80000014:	4fad                	li	t6,11
80000016:	03ff0063          	beq	t5,t6,80000036 <write_tohost>
8000001a:	80000f17          	auipc	t5,0x80000
8000001e:	fe6f0f13          	addi	t5,t5,-26 # 0 <_start-0x80000000>
80000022:	000f0363          	beqz	t5,80000028 <trap_vector+0x24>
80000026:	8f02                	jr	t5
80000028:	34202f73          	csrr	t5,mcause
8000002c:	000f5363          	bgez	t5,80000032 <handle_exception>
80000030:	a009                	j	80000032 <handle_exception>

80000032 <handle_exception>:
80000032:	5391e193          	ori	gp,gp,1337

80000036 <write_tohost>:
80000036:	00001f17          	auipc	t5,0x1
8000003a:	fc3f2523          	sw	gp,-54(t5) # 80001000 <tohost>
8000003e:	bfe5                	j	80000036 <write_tohost>

80000040 <reset_vector>:
80000040:	f1402573          	csrr	a0,mhartid
80000044:	e101                	bnez	a0,80000044 <reset_vector+0x4>
80000046:	00000297          	auipc	t0,0x0
8000004a:	01228293          	addi	t0,t0,18 # 80000058 <reset_vector+0x18>
8000004e:	30529073          	csrw	mtvec,t0
80000052:	18005073          	csrwi	satp,0
80000056:	0001                	nop
80000058:	00000297          	auipc	t0,0x0
8000005c:	01828293          	addi	t0,t0,24 # 80000070 <reset_vector+0x30>
80000060:	30529073          	csrw	mtvec,t0
80000064:	52fd                	li	t0,-1
80000066:	3b029073          	csrw	pmpaddr0,t0
8000006a:	42fd                	li	t0,31
8000006c:	3a029073          	csrw	pmpcfg0,t0
80000070:	00000297          	auipc	t0,0x0
80000074:	01828293          	addi	t0,t0,24 # 80000088 <reset_vector+0x48>
80000078:	30529073          	csrw	mtvec,t0
8000007c:	30205073          	csrwi	medeleg,0
80000080:	30305073          	csrwi	mideleg,0
80000084:	30405073          	csrwi	mie,0
80000088:	4181                	li	gp,0
8000008a:	00000297          	auipc	t0,0x0
8000008e:	f7a28293          	addi	t0,t0,-134 # 80000004 <trap_vector>
80000092:	30529073          	csrw	mtvec,t0
80000096:	4505                	li	a0,1
80000098:	057e                	slli	a0,a0,0x1f
8000009a:	00054763          	bltz	a0,800000a8 <reset_vector+0x68>
8000009e:	0ff0000f          	fence
800000a2:	4185                	li	gp,1
800000a4:	00000073          	ecall
800000a8:	80000297          	auipc	t0,0x80000
800000ac:	f5828293          	addi	t0,t0,-168 # 0 <_start-0x80000000>
800000b0:	00028e63          	beqz	t0,800000cc <reset_vector+0x8c>
800000b4:	10529073          	csrw	stvec,t0
800000b8:	0000b2b7          	lui	t0,0xb
800000bc:	10928293          	addi	t0,t0,265 # b109 <_start-0x7fff4ef7>
800000c0:	30229073          	csrw	medeleg,t0
800000c4:	30202373          	csrr	t1,medeleg
800000c8:	f66295e3          	bne	t0,t1,80000032 <handle_exception>
800000cc:	30005073          	csrwi	mstatus,0
800000d0:	00002537          	lui	a0,0x2
800000d4:	80050513          	addi	a0,a0,-2048 # 1800 <_start-0x7fffe800>
800000d8:	30052073          	csrs	mstatus,a0
800000dc:	00000297          	auipc	t0,0x0
800000e0:	01428293          	addi	t0,t0,20 # 800000f0 <begin_testcode>
800000e4:	34129073          	csrw	mepc,t0
800000e8:	f1402573          	csrr	a0,mhartid
800000ec:	30200073          	mret

800000f0 <begin_testcode>:
800000f0:	00002117          	auipc	sp,0x2
800000f4:	f1010113          	addi	sp,sp,-240 # 80002000 <begin_signature>
800000f8:	4401                	li	s0,0
800000fa:	2029                	jal	80000104 <begin_testcode+0x14>
800000fc:	00012437          	lui	s0,0x12
80000100:	3ab40413          	addi	s0,s0,939 # 123ab <_start-0x7ffedc55>
80000104:	c022                	sw	s0,0(sp)
80000106:	00002117          	auipc	sp,0x2
8000010a:	efe10113          	addi	sp,sp,-258 # 80002004 <test_2_res>
8000010e:	4485                	li	s1,1
80000110:	2029                	jal	8000011a <begin_testcode+0x2a>
80000112:	000124b7          	lui	s1,0x12
80000116:	3ab48493          	addi	s1,s1,939 # 123ab <_start-0x7ffedc55>
8000011a:	c026                	sw	s1,0(sp)
8000011c:	00002117          	auipc	sp,0x2
80000120:	eec10113          	addi	sp,sp,-276 # 80002008 <test_3_res>
80000124:	55fd                	li	a1,-1
80000126:	2029                	jal	80000130 <begin_testcode+0x40>
80000128:	000125b7          	lui	a1,0x12
8000012c:	3ab58593          	addi	a1,a1,939 # 123ab <_start-0x7ffedc55>
80000130:	c02e                	sw	a1,0(sp)
80000132:	00002117          	auipc	sp,0x2
80000136:	eda10113          	addi	sp,sp,-294 # 8000200c <test_4_res>
8000013a:	00008637          	lui	a2,0x8
8000013e:	fff60613          	addi	a2,a2,-1 # 7fff <_start-0x7fff8001>
80000142:	2029                	jal	8000014c <begin_testcode+0x5c>
80000144:	00012637          	lui	a2,0x12
80000148:	3ab60613          	addi	a2,a2,939 # 123ab <_start-0x7ffedc55>
8000014c:	c032                	sw	a2,0(sp)
8000014e:	00002117          	auipc	sp,0x2
80000152:	ec210113          	addi	sp,sp,-318 # 80002010 <test_5_res>
80000156:	66a1                	lui	a3,0x8
80000158:	2029                	jal	80000162 <begin_testcode+0x72>
8000015a:	000126b7          	lui	a3,0x12
8000015e:	3ab68693          	addi	a3,a3,939 # 123ab <_start-0x7ffedc55>
80000162:	c036                	sw	a3,0(sp)
80000164:	0ff0000f          	fence
80000168:	4185                	li	gp,1
8000016a:	00000073          	ecall

8000016e <end_testcode>:
	...

Disassembly of section .tohost:

80001000 <tohost>:
	...

80001100 <fromhost>:
	...

Disassembly of section .data:

80002000 <begin_signature>:
80002000:	ffff                	0xffff
80002002:	ffff                	0xffff

80002004 <test_2_res>:
80002004:	ffff                	0xffff
80002006:	ffff                	0xffff

80002008 <test_3_res>:
80002008:	ffff                	0xffff
8000200a:	ffff                	0xffff

8000200c <test_4_res>:
8000200c:	ffff                	0xffff
8000200e:	ffff                	0xffff

80002010 <test_5_res>:
80002010:	ffff                	0xffff
80002012:	ffff                	0xffff
	...

80002020 <end_signature>:
	...

80002100 <begin_regstate>:
80002100:	0080                	addi	s0,sp,64
	...

80002200 <end_regstate>:
80002200:	0004                	0x4
	...

