
/home/lenovo/riscv-compliance/work/rv32imc/C-LW.elf:     file format elf32-littleriscv


Disassembly of section .text.init:

80000000 <_start>:
80000000:	a081                	j	80000040 <reset_vector>
80000002:	0001                	nop

80000004 <trap_vector>:
80000004:	34202f73          	csrr	t5,mcause
80000008:	4fa1                	li	t6,8
8000000a:	03ff0663          	beq	t5,t6,80000036 <write_tohost>
8000000e:	4fa5                	li	t6,9
80000010:	03ff0363          	beq	t5,t6,80000036 <write_tohost>
80000014:	4fad                	li	t6,11
80000016:	03ff0063          	beq	t5,t6,80000036 <write_tohost>
8000001a:	80000f17          	auipc	t5,0x80000
8000001e:	fe6f0f13          	addi	t5,t5,-26 # 0 <_start-0x80000000>
80000022:	000f0363          	beqz	t5,80000028 <trap_vector+0x24>
80000026:	8f02                	jr	t5
80000028:	34202f73          	csrr	t5,mcause
8000002c:	000f5363          	bgez	t5,80000032 <handle_exception>
80000030:	a009                	j	80000032 <handle_exception>

80000032 <handle_exception>:
80000032:	5391e193          	ori	gp,gp,1337

80000036 <write_tohost>:
80000036:	00001f17          	auipc	t5,0x1
8000003a:	fc3f2523          	sw	gp,-54(t5) # 80001000 <tohost>
8000003e:	bfe5                	j	80000036 <write_tohost>

80000040 <reset_vector>:
80000040:	f1402573          	csrr	a0,mhartid
80000044:	e101                	bnez	a0,80000044 <reset_vector+0x4>
80000046:	00000297          	auipc	t0,0x0
8000004a:	01228293          	addi	t0,t0,18 # 80000058 <reset_vector+0x18>
8000004e:	30529073          	csrw	mtvec,t0
80000052:	18005073          	csrwi	satp,0
80000056:	0001                	nop
80000058:	00000297          	auipc	t0,0x0
8000005c:	01828293          	addi	t0,t0,24 # 80000070 <reset_vector+0x30>
80000060:	30529073          	csrw	mtvec,t0
80000064:	52fd                	li	t0,-1
80000066:	3b029073          	csrw	pmpaddr0,t0
8000006a:	42fd                	li	t0,31
8000006c:	3a029073          	csrw	pmpcfg0,t0
80000070:	00000297          	auipc	t0,0x0
80000074:	01828293          	addi	t0,t0,24 # 80000088 <reset_vector+0x48>
80000078:	30529073          	csrw	mtvec,t0
8000007c:	30205073          	csrwi	medeleg,0
80000080:	30305073          	csrwi	mideleg,0
80000084:	30405073          	csrwi	mie,0
80000088:	4181                	li	gp,0
8000008a:	00000297          	auipc	t0,0x0
8000008e:	f7a28293          	addi	t0,t0,-134 # 80000004 <trap_vector>
80000092:	30529073          	csrw	mtvec,t0
80000096:	4505                	li	a0,1
80000098:	057e                	slli	a0,a0,0x1f
8000009a:	00054763          	bltz	a0,800000a8 <reset_vector+0x68>
8000009e:	0ff0000f          	fence
800000a2:	4185                	li	gp,1
800000a4:	00000073          	ecall
800000a8:	80000297          	auipc	t0,0x80000
800000ac:	f5828293          	addi	t0,t0,-168 # 0 <_start-0x80000000>
800000b0:	00028e63          	beqz	t0,800000cc <reset_vector+0x8c>
800000b4:	10529073          	csrw	stvec,t0
800000b8:	0000b2b7          	lui	t0,0xb
800000bc:	10928293          	addi	t0,t0,265 # b109 <_start-0x7fff4ef7>
800000c0:	30229073          	csrw	medeleg,t0
800000c4:	30202373          	csrr	t1,medeleg
800000c8:	f66295e3          	bne	t0,t1,80000032 <handle_exception>
800000cc:	30005073          	csrwi	mstatus,0
800000d0:	00002537          	lui	a0,0x2
800000d4:	80050513          	addi	a0,a0,-2048 # 1800 <_start-0x7fffe800>
800000d8:	30052073          	csrs	mstatus,a0
800000dc:	00000297          	auipc	t0,0x0
800000e0:	01428293          	addi	t0,t0,20 # 800000f0 <begin_testcode>
800000e4:	34129073          	csrw	mepc,t0
800000e8:	f1402573          	csrr	a0,mhartid
800000ec:	30200073          	mret

800000f0 <begin_testcode>:
800000f0:	00002117          	auipc	sp,0x2
800000f4:	f9010113          	addi	sp,sp,-112 # 80002080 <begin_signature>
800000f8:	00002717          	auipc	a4,0x2
800000fc:	f0870713          	addi	a4,a4,-248 # 80002000 <test_data>
80000100:	4318                	lw	a4,0(a4)
80000102:	c03a                	sw	a4,0(sp)
80000104:	00002117          	auipc	sp,0x2
80000108:	f8010113          	addi	sp,sp,-128 # 80002084 <test_2_res>
8000010c:	00002797          	auipc	a5,0x2
80000110:	ef478793          	addi	a5,a5,-268 # 80002000 <test_data>
80000114:	43dc                	lw	a5,4(a5)
80000116:	c03e                	sw	a5,0(sp)
80000118:	00002117          	auipc	sp,0x2
8000011c:	f7010113          	addi	sp,sp,-144 # 80002088 <test_3_res>
80000120:	00002417          	auipc	s0,0x2
80000124:	ee040413          	addi	s0,s0,-288 # 80002000 <test_data>
80000128:	4400                	lw	s0,8(s0)
8000012a:	c022                	sw	s0,0(sp)
8000012c:	00002117          	auipc	sp,0x2
80000130:	f6010113          	addi	sp,sp,-160 # 8000208c <test_4_res>
80000134:	00002497          	auipc	s1,0x2
80000138:	ecc48493          	addi	s1,s1,-308 # 80002000 <test_data>
8000013c:	50e4                	lw	s1,100(s1)
8000013e:	c026                	sw	s1,0(sp)
80000140:	00002117          	auipc	sp,0x2
80000144:	f5010113          	addi	sp,sp,-176 # 80002090 <test_5_res>
80000148:	00002697          	auipc	a3,0x2
8000014c:	eb868693          	addi	a3,a3,-328 # 80002000 <test_data>
80000150:	5ef4                	lw	a3,124(a3)
80000152:	c036                	sw	a3,0(sp)
80000154:	0ff0000f          	fence
80000158:	4185                	li	gp,1
8000015a:	00000073          	ecall

8000015e <end_testcode>:
	...

Disassembly of section .tohost:

80001000 <tohost>:
	...

80001100 <fromhost>:
	...

Disassembly of section .data:

80002000 <test_data>:
80002000:	1111                	addi	sp,sp,-28
80002002:	1111                	addi	sp,sp,-28
80002004:	2222                	fld	ft4,8(sp)
80002006:	2222                	fld	ft4,8(sp)
80002008:	33333333          	0x33333333
8000200c:	ffff                	0xffff
8000200e:	ffff                	0xffff
80002010:	ffff                	0xffff
80002012:	ffff                	0xffff
80002014:	ffff                	0xffff
80002016:	ffff                	0xffff
80002018:	ffff                	0xffff
8000201a:	ffff                	0xffff
8000201c:	ffff                	0xffff
8000201e:	ffff                	0xffff
80002020:	ffff                	0xffff
80002022:	ffff                	0xffff
80002024:	ffff                	0xffff
80002026:	ffff                	0xffff
80002028:	ffff                	0xffff
8000202a:	ffff                	0xffff
8000202c:	ffff                	0xffff
8000202e:	ffff                	0xffff
80002030:	ffff                	0xffff
80002032:	ffff                	0xffff
80002034:	ffff                	0xffff
80002036:	ffff                	0xffff
80002038:	ffff                	0xffff
8000203a:	ffff                	0xffff
8000203c:	ffff                	0xffff
8000203e:	ffff                	0xffff
80002040:	ffff                	0xffff
80002042:	ffff                	0xffff
80002044:	ffff                	0xffff
80002046:	ffff                	0xffff
80002048:	ffff                	0xffff
8000204a:	ffff                	0xffff
8000204c:	ffff                	0xffff
8000204e:	ffff                	0xffff
80002050:	ffff                	0xffff
80002052:	ffff                	0xffff
80002054:	ffff                	0xffff
80002056:	ffff                	0xffff
80002058:	ffff                	0xffff
8000205a:	ffff                	0xffff
8000205c:	ffff                	0xffff
8000205e:	ffff                	0xffff
80002060:	ffff                	0xffff
80002062:	ffff                	0xffff
80002064:	4444                	lw	s1,12(s0)
80002066:	4444                	lw	s1,12(s0)
80002068:	ffff                	0xffff
8000206a:	ffff                	0xffff
8000206c:	ffff                	0xffff
8000206e:	ffff                	0xffff
80002070:	ffff                	0xffff
80002072:	ffff                	0xffff
80002074:	ffff                	0xffff
80002076:	ffff                	0xffff
80002078:	ffff                	0xffff
8000207a:	ffff                	0xffff
8000207c:	5555                	li	a0,-11
8000207e:	5555                	li	a0,-11

80002080 <begin_signature>:
80002080:	ffff                	0xffff
80002082:	ffff                	0xffff

80002084 <test_2_res>:
80002084:	ffff                	0xffff
80002086:	ffff                	0xffff

80002088 <test_3_res>:
80002088:	ffff                	0xffff
8000208a:	ffff                	0xffff

8000208c <test_4_res>:
8000208c:	ffff                	0xffff
8000208e:	ffff                	0xffff

80002090 <test_5_res>:
80002090:	ffff                	0xffff
80002092:	ffff                	0xffff
	...

800020a0 <end_signature>:
	...

80002100 <begin_regstate>:
80002100:	0080                	addi	s0,sp,64
	...

80002200 <end_regstate>:
80002200:	0004                	0x4
	...

