
/home/lenovo/riscv-compliance/work/rv32imc/C-MV.elf:     file format elf32-littleriscv


Disassembly of section .text.init:

80000000 <_start>:
80000000:	a081                	j	80000040 <reset_vector>
80000002:	0001                	nop

80000004 <trap_vector>:
80000004:	34202f73          	csrr	t5,mcause
80000008:	4fa1                	li	t6,8
8000000a:	03ff0663          	beq	t5,t6,80000036 <write_tohost>
8000000e:	4fa5                	li	t6,9
80000010:	03ff0363          	beq	t5,t6,80000036 <write_tohost>
80000014:	4fad                	li	t6,11
80000016:	03ff0063          	beq	t5,t6,80000036 <write_tohost>
8000001a:	80000f17          	auipc	t5,0x80000
8000001e:	fe6f0f13          	addi	t5,t5,-26 # 0 <_start-0x80000000>
80000022:	000f0363          	beqz	t5,80000028 <trap_vector+0x24>
80000026:	8f02                	jr	t5
80000028:	34202f73          	csrr	t5,mcause
8000002c:	000f5363          	bgez	t5,80000032 <handle_exception>
80000030:	a009                	j	80000032 <handle_exception>

80000032 <handle_exception>:
80000032:	5391e193          	ori	gp,gp,1337

80000036 <write_tohost>:
80000036:	00001f17          	auipc	t5,0x1
8000003a:	fc3f2523          	sw	gp,-54(t5) # 80001000 <tohost>
8000003e:	bfe5                	j	80000036 <write_tohost>

80000040 <reset_vector>:
80000040:	f1402573          	csrr	a0,mhartid
80000044:	e101                	bnez	a0,80000044 <reset_vector+0x4>
80000046:	00000297          	auipc	t0,0x0
8000004a:	01228293          	addi	t0,t0,18 # 80000058 <reset_vector+0x18>
8000004e:	30529073          	csrw	mtvec,t0
80000052:	18005073          	csrwi	satp,0
80000056:	0001                	nop
80000058:	00000297          	auipc	t0,0x0
8000005c:	01828293          	addi	t0,t0,24 # 80000070 <reset_vector+0x30>
80000060:	30529073          	csrw	mtvec,t0
80000064:	52fd                	li	t0,-1
80000066:	3b029073          	csrw	pmpaddr0,t0
8000006a:	42fd                	li	t0,31
8000006c:	3a029073          	csrw	pmpcfg0,t0
80000070:	00000297          	auipc	t0,0x0
80000074:	01828293          	addi	t0,t0,24 # 80000088 <reset_vector+0x48>
80000078:	30529073          	csrw	mtvec,t0
8000007c:	30205073          	csrwi	medeleg,0
80000080:	30305073          	csrwi	mideleg,0
80000084:	30405073          	csrwi	mie,0
80000088:	4181                	li	gp,0
8000008a:	00000297          	auipc	t0,0x0
8000008e:	f7a28293          	addi	t0,t0,-134 # 80000004 <trap_vector>
80000092:	30529073          	csrw	mtvec,t0
80000096:	4505                	li	a0,1
80000098:	057e                	slli	a0,a0,0x1f
8000009a:	00054763          	bltz	a0,800000a8 <reset_vector+0x68>
8000009e:	0ff0000f          	fence
800000a2:	4185                	li	gp,1
800000a4:	00000073          	ecall
800000a8:	80000297          	auipc	t0,0x80000
800000ac:	f5828293          	addi	t0,t0,-168 # 0 <_start-0x80000000>
800000b0:	00028e63          	beqz	t0,800000cc <reset_vector+0x8c>
800000b4:	10529073          	csrw	stvec,t0
800000b8:	0000b2b7          	lui	t0,0xb
800000bc:	10928293          	addi	t0,t0,265 # b109 <_start-0x7fff4ef7>
800000c0:	30229073          	csrw	medeleg,t0
800000c4:	30202373          	csrr	t1,medeleg
800000c8:	f66295e3          	bne	t0,t1,80000032 <handle_exception>
800000cc:	30005073          	csrwi	mstatus,0
800000d0:	00002537          	lui	a0,0x2
800000d4:	80050513          	addi	a0,a0,-2048 # 1800 <_start-0x7fffe800>
800000d8:	30052073          	csrs	mstatus,a0
800000dc:	00000297          	auipc	t0,0x0
800000e0:	01428293          	addi	t0,t0,20 # 800000f0 <begin_testcode>
800000e4:	34129073          	csrw	mepc,t0
800000e8:	f1402573          	csrr	a0,mhartid
800000ec:	30200073          	mret

800000f0 <begin_testcode>:
800000f0:	00002117          	auipc	sp,0x2
800000f4:	f1010113          	addi	sp,sp,-240 # 80002000 <begin_signature>
800000f8:	4601                	li	a2,0
800000fa:	4581                	li	a1,0
800000fc:	85b2                	mv	a1,a2
800000fe:	c02e                	sw	a1,0(sp)
80000100:	4701                	li	a4,0
80000102:	4685                	li	a3,1
80000104:	86ba                	mv	a3,a4
80000106:	c236                	sw	a3,4(sp)
80000108:	4401                	li	s0,0
8000010a:	fff00793          	li	a5,-1
8000010e:	87a2                	mv	a5,s0
80000110:	c43e                	sw	a5,8(sp)
80000112:	4581                	li	a1,0
80000114:	000084b7          	lui	s1,0x8
80000118:	fff48493          	addi	s1,s1,-1 # 7fff <_start-0x7fff8001>
8000011c:	84ae                	mv	s1,a1
8000011e:	c626                	sw	s1,12(sp)
80000120:	4681                	li	a3,0
80000122:	6621                	lui	a2,0x8
80000124:	8636                	mv	a2,a3
80000126:	c832                	sw	a2,16(sp)
80000128:	00002117          	auipc	sp,0x2
8000012c:	eec10113          	addi	sp,sp,-276 # 80002014 <test_2_res>
80000130:	4785                	li	a5,1
80000132:	4701                	li	a4,0
80000134:	873e                	mv	a4,a5
80000136:	c03a                	sw	a4,0(sp)
80000138:	4485                	li	s1,1
8000013a:	4405                	li	s0,1
8000013c:	8426                	mv	s0,s1
8000013e:	c222                	sw	s0,4(sp)
80000140:	4605                	li	a2,1
80000142:	fff00593          	li	a1,-1
80000146:	85b2                	mv	a1,a2
80000148:	c42e                	sw	a1,8(sp)
8000014a:	4705                	li	a4,1
8000014c:	000086b7          	lui	a3,0x8
80000150:	fff68693          	addi	a3,a3,-1 # 7fff <_start-0x7fff8001>
80000154:	86ba                	mv	a3,a4
80000156:	c636                	sw	a3,12(sp)
80000158:	4405                	li	s0,1
8000015a:	67a1                	lui	a5,0x8
8000015c:	87a2                	mv	a5,s0
8000015e:	c83e                	sw	a5,16(sp)
80000160:	00002117          	auipc	sp,0x2
80000164:	ec810113          	addi	sp,sp,-312 # 80002028 <test_3_res>
80000168:	fff00593          	li	a1,-1
8000016c:	4481                	li	s1,0
8000016e:	84ae                	mv	s1,a1
80000170:	c026                	sw	s1,0(sp)
80000172:	fff00693          	li	a3,-1
80000176:	4605                	li	a2,1
80000178:	8636                	mv	a2,a3
8000017a:	c232                	sw	a2,4(sp)
8000017c:	fff00793          	li	a5,-1
80000180:	fff00713          	li	a4,-1
80000184:	873e                	mv	a4,a5
80000186:	c43a                	sw	a4,8(sp)
80000188:	fff00493          	li	s1,-1
8000018c:	00008437          	lui	s0,0x8
80000190:	fff40413          	addi	s0,s0,-1 # 7fff <_start-0x7fff8001>
80000194:	8426                	mv	s0,s1
80000196:	c622                	sw	s0,12(sp)
80000198:	fff00613          	li	a2,-1
8000019c:	65a1                	lui	a1,0x8
8000019e:	85b2                	mv	a1,a2
800001a0:	c82e                	sw	a1,16(sp)
800001a2:	00002117          	auipc	sp,0x2
800001a6:	e9a10113          	addi	sp,sp,-358 # 8000203c <test_4_res>
800001aa:	00008737          	lui	a4,0x8
800001ae:	fff70713          	addi	a4,a4,-1 # 7fff <_start-0x7fff8001>
800001b2:	4681                	li	a3,0
800001b4:	86ba                	mv	a3,a4
800001b6:	c036                	sw	a3,0(sp)
800001b8:	00008437          	lui	s0,0x8
800001bc:	fff40413          	addi	s0,s0,-1 # 7fff <_start-0x7fff8001>
800001c0:	4785                	li	a5,1
800001c2:	87a2                	mv	a5,s0
800001c4:	c23e                	sw	a5,4(sp)
800001c6:	000085b7          	lui	a1,0x8
800001ca:	fff58593          	addi	a1,a1,-1 # 7fff <_start-0x7fff8001>
800001ce:	fff00493          	li	s1,-1
800001d2:	84ae                	mv	s1,a1
800001d4:	c426                	sw	s1,8(sp)
800001d6:	000086b7          	lui	a3,0x8
800001da:	fff68693          	addi	a3,a3,-1 # 7fff <_start-0x7fff8001>
800001de:	00008637          	lui	a2,0x8
800001e2:	fff60613          	addi	a2,a2,-1 # 7fff <_start-0x7fff8001>
800001e6:	8636                	mv	a2,a3
800001e8:	c632                	sw	a2,12(sp)
800001ea:	000087b7          	lui	a5,0x8
800001ee:	fff78793          	addi	a5,a5,-1 # 7fff <_start-0x7fff8001>
800001f2:	6721                	lui	a4,0x8
800001f4:	873e                	mv	a4,a5
800001f6:	c83a                	sw	a4,16(sp)
800001f8:	00002117          	auipc	sp,0x2
800001fc:	e5810113          	addi	sp,sp,-424 # 80002050 <test_5_res>
80000200:	64a1                	lui	s1,0x8
80000202:	4401                	li	s0,0
80000204:	8426                	mv	s0,s1
80000206:	c022                	sw	s0,0(sp)
80000208:	6621                	lui	a2,0x8
8000020a:	4585                	li	a1,1
8000020c:	85b2                	mv	a1,a2
8000020e:	c22e                	sw	a1,4(sp)
80000210:	6721                	lui	a4,0x8
80000212:	fff00693          	li	a3,-1
80000216:	86ba                	mv	a3,a4
80000218:	c436                	sw	a3,8(sp)
8000021a:	6421                	lui	s0,0x8
8000021c:	000087b7          	lui	a5,0x8
80000220:	fff78793          	addi	a5,a5,-1 # 7fff <_start-0x7fff8001>
80000224:	87a2                	mv	a5,s0
80000226:	c63e                	sw	a5,12(sp)
80000228:	65a1                	lui	a1,0x8
8000022a:	64a1                	lui	s1,0x8
8000022c:	84ae                	mv	s1,a1
8000022e:	c826                	sw	s1,16(sp)
80000230:	0ff0000f          	fence
80000234:	4185                	li	gp,1
80000236:	00000073          	ecall

8000023a <end_testcode>:
8000023a:	0000                	unimp
	...

Disassembly of section .tohost:

80001000 <tohost>:
	...

80001100 <fromhost>:
	...

Disassembly of section .data:

80002000 <begin_signature>:
80002000:	ffff                	0xffff
80002002:	ffff                	0xffff
80002004:	ffff                	0xffff
80002006:	ffff                	0xffff
80002008:	ffff                	0xffff
8000200a:	ffff                	0xffff
8000200c:	ffff                	0xffff
8000200e:	ffff                	0xffff
80002010:	ffff                	0xffff
80002012:	ffff                	0xffff

80002014 <test_2_res>:
80002014:	ffff                	0xffff
80002016:	ffff                	0xffff
80002018:	ffff                	0xffff
8000201a:	ffff                	0xffff
8000201c:	ffff                	0xffff
8000201e:	ffff                	0xffff
80002020:	ffff                	0xffff
80002022:	ffff                	0xffff
80002024:	ffff                	0xffff
80002026:	ffff                	0xffff

80002028 <test_3_res>:
80002028:	ffff                	0xffff
8000202a:	ffff                	0xffff
8000202c:	ffff                	0xffff
8000202e:	ffff                	0xffff
80002030:	ffff                	0xffff
80002032:	ffff                	0xffff
80002034:	ffff                	0xffff
80002036:	ffff                	0xffff
80002038:	ffff                	0xffff
8000203a:	ffff                	0xffff

8000203c <test_4_res>:
8000203c:	ffff                	0xffff
8000203e:	ffff                	0xffff
80002040:	ffff                	0xffff
80002042:	ffff                	0xffff
80002044:	ffff                	0xffff
80002046:	ffff                	0xffff
80002048:	ffff                	0xffff
8000204a:	ffff                	0xffff
8000204c:	ffff                	0xffff
8000204e:	ffff                	0xffff

80002050 <test_5_res>:
80002050:	ffff                	0xffff
80002052:	ffff                	0xffff
80002054:	ffff                	0xffff
80002056:	ffff                	0xffff
80002058:	ffff                	0xffff
8000205a:	ffff                	0xffff
8000205c:	ffff                	0xffff
8000205e:	ffff                	0xffff
80002060:	ffff                	0xffff
80002062:	ffff                	0xffff
	...

80002070 <end_signature>:
	...

80002100 <begin_regstate>:
80002100:	0080                	addi	s0,sp,64
	...

80002200 <end_regstate>:
80002200:	0004                	0x4
	...

