
/home/lenovo/riscv-compliance/work//I-CSRRW-01.elf:     file format elf32-littleriscv


Disassembly of section .text.init:

80000000 <_start>:
80000000:	04c0006f          	j	8000004c <reset_vector>

80000004 <trap_vector>:
80000004:	34202f73          	csrr	t5,mcause
80000008:	00800f93          	li	t6,8
8000000c:	03ff0a63          	beq	t5,t6,80000040 <write_tohost>
80000010:	00900f93          	li	t6,9
80000014:	03ff0663          	beq	t5,t6,80000040 <write_tohost>
80000018:	00b00f93          	li	t6,11
8000001c:	03ff0263          	beq	t5,t6,80000040 <write_tohost>
80000020:	80000f17          	auipc	t5,0x80000
80000024:	fe0f0f13          	addi	t5,t5,-32 # 0 <_start-0x80000000>
80000028:	000f0463          	beqz	t5,80000030 <trap_vector+0x2c>
8000002c:	000f0067          	jr	t5
80000030:	34202f73          	csrr	t5,mcause
80000034:	000f5463          	bgez	t5,8000003c <handle_exception>
80000038:	0040006f          	j	8000003c <handle_exception>

8000003c <handle_exception>:
8000003c:	5391e193          	ori	gp,gp,1337

80000040 <write_tohost>:
80000040:	00001f17          	auipc	t5,0x1
80000044:	fc3f2023          	sw	gp,-64(t5) # 80001000 <tohost>
80000048:	ff9ff06f          	j	80000040 <write_tohost>

8000004c <reset_vector>:
8000004c:	f1402573          	csrr	a0,mhartid
80000050:	00051063          	bnez	a0,80000050 <reset_vector+0x4>
80000054:	00000297          	auipc	t0,0x0
80000058:	01028293          	addi	t0,t0,16 # 80000064 <reset_vector+0x18>
8000005c:	30529073          	csrw	mtvec,t0
80000060:	18005073          	csrwi	satp,0
80000064:	00000297          	auipc	t0,0x0
80000068:	01c28293          	addi	t0,t0,28 # 80000080 <reset_vector+0x34>
8000006c:	30529073          	csrw	mtvec,t0
80000070:	fff00293          	li	t0,-1
80000074:	3b029073          	csrw	pmpaddr0,t0
80000078:	01f00293          	li	t0,31
8000007c:	3a029073          	csrw	pmpcfg0,t0
80000080:	00000297          	auipc	t0,0x0
80000084:	01828293          	addi	t0,t0,24 # 80000098 <reset_vector+0x4c>
80000088:	30529073          	csrw	mtvec,t0
8000008c:	30205073          	csrwi	medeleg,0
80000090:	30305073          	csrwi	mideleg,0
80000094:	30405073          	csrwi	mie,0
80000098:	00000193          	li	gp,0
8000009c:	00000297          	auipc	t0,0x0
800000a0:	f6828293          	addi	t0,t0,-152 # 80000004 <trap_vector>
800000a4:	30529073          	csrw	mtvec,t0
800000a8:	00100513          	li	a0,1
800000ac:	01f51513          	slli	a0,a0,0x1f
800000b0:	00054863          	bltz	a0,800000c0 <reset_vector+0x74>
800000b4:	0ff0000f          	fence
800000b8:	00100193          	li	gp,1
800000bc:	00000073          	ecall
800000c0:	80000297          	auipc	t0,0x80000
800000c4:	f4028293          	addi	t0,t0,-192 # 0 <_start-0x80000000>
800000c8:	00028e63          	beqz	t0,800000e4 <reset_vector+0x98>
800000cc:	10529073          	csrw	stvec,t0
800000d0:	0000b2b7          	lui	t0,0xb
800000d4:	10928293          	addi	t0,t0,265 # b109 <_start-0x7fff4ef7>
800000d8:	30229073          	csrw	medeleg,t0
800000dc:	30202373          	csrr	t1,medeleg
800000e0:	f4629ee3          	bne	t0,t1,8000003c <handle_exception>
800000e4:	30005073          	csrwi	mstatus,0
800000e8:	00002537          	lui	a0,0x2
800000ec:	80050513          	addi	a0,a0,-2048 # 1800 <_start-0x7fffe800>
800000f0:	30052073          	csrs	mstatus,a0
800000f4:	00000297          	auipc	t0,0x0
800000f8:	01428293          	addi	t0,t0,20 # 80000108 <begin_testcode>
800000fc:	34129073          	csrw	mepc,t0
80000100:	f1402573          	csrr	a0,mhartid
80000104:	30200073          	mret

80000108 <begin_testcode>:
80000108:	00002797          	auipc	a5,0x2
8000010c:	ef878793          	addi	a5,a5,-264 # 80002000 <begin_signature>
80000110:	00100093          	li	ra,1
80000114:	00000193          	li	gp,0
80000118:	fff00293          	li	t0,-1
8000011c:	80000db7          	lui	s11,0x80000
80000120:	fffd8d93          	addi	s11,s11,-1 # 7fffffff <_end+0xffffdfbf>
80000124:	80000eb7          	lui	t4,0x80000
80000128:	34001073          	csrw	mscratch,zero
8000012c:	34009173          	csrrw	sp,mscratch,ra
80000130:	34019273          	csrrw	tp,mscratch,gp
80000134:	34029373          	csrrw	t1,mscratch,t0
80000138:	340d9e73          	csrrw	t3,mscratch,s11
8000013c:	340e9f73          	csrrw	t5,mscratch,t4
80000140:	34001ff3          	csrrw	t6,mscratch,zero
80000144:	0027a023          	sw	sp,0(a5)
80000148:	0047a223          	sw	tp,4(a5)
8000014c:	0067a423          	sw	t1,8(a5)
80000150:	01c7a623          	sw	t3,12(a5)
80000154:	01e7a823          	sw	t5,16(a5)
80000158:	01f7aa23          	sw	t6,20(a5)
8000015c:	00002d17          	auipc	s10,0x2
80000160:	ebcd0d13          	addi	s10,s10,-324 # 80002018 <test_B_res>
80000164:	123450b7          	lui	ra,0x12345
80000168:	67808093          	addi	ra,ra,1656 # 12345678 <_start-0x6dcba988>
8000016c:	9abce137          	lui	sp,0x9abce
80000170:	ef010113          	addi	sp,sp,-272 # 9abcdef0 <_end+0x1abcbeb0>
80000174:	34009073          	csrw	mscratch,ra
80000178:	340111f3          	csrrw	gp,mscratch,sp
8000017c:	34019273          	csrrw	tp,mscratch,gp
80000180:	340212f3          	csrrw	t0,mscratch,tp
80000184:	34001373          	csrrw	t1,mscratch,zero
80000188:	003d2023          	sw	gp,0(s10)
8000018c:	004d2223          	sw	tp,4(s10)
80000190:	005d2423          	sw	t0,8(s10)
80000194:	006d2623          	sw	t1,12(s10)
80000198:	00002097          	auipc	ra,0x2
8000019c:	e9008093          	addi	ra,ra,-368 # 80002028 <test_C_res>
800001a0:	42727137          	lui	sp,0x42727
800001a4:	e6f10113          	addi	sp,sp,-401 # 42726e6f <_start-0x3d8d9191>
800001a8:	34011073          	csrw	mscratch,sp
800001ac:	34001073          	csrw	mscratch,zero
800001b0:	0000a023          	sw	zero,0(ra)
800001b4:	00002117          	auipc	sp,0x2
800001b8:	e7810113          	addi	sp,sp,-392 # 8000202c <test_D_res>
800001bc:	f7ff9db7          	lui	s11,0xf7ff9
800001c0:	818d8d93          	addi	s11,s11,-2024 # f7ff8818 <_end+0x77ff67d8>
800001c4:	340d9073          	csrw	mscratch,s11
800001c8:	34001073          	csrw	mscratch,zero
800001cc:	34001073          	csrw	mscratch,zero
800001d0:	340012f3          	csrrw	t0,mscratch,zero
800001d4:	00012023          	sw	zero,0(sp)
800001d8:	00512223          	sw	t0,4(sp)
800001dc:	00002117          	auipc	sp,0x2
800001e0:	e5810113          	addi	sp,sp,-424 # 80002034 <test_E_res>
800001e4:	321653b7          	lui	t2,0x32165
800001e8:	49838393          	addi	t2,t2,1176 # 32165498 <_start-0x4de9ab68>
800001ec:	14726337          	lui	t1,0x14726
800001f0:	83630313          	addi	t1,t1,-1994 # 14725836 <_start-0x6b8da7ca>
800001f4:	963852b7          	lui	t0,0x96385
800001f8:	27428293          	addi	t0,t0,628 # 96385274 <_end+0x16383234>
800001fc:	34031073          	csrw	mscratch,t1
80000200:	340292f3          	csrrw	t0,mscratch,t0
80000204:	340393f3          	csrrw	t2,mscratch,t2
80000208:	34001473          	csrrw	s0,mscratch,zero
8000020c:	00512023          	sw	t0,0(sp)
80000210:	00712223          	sw	t2,4(sp)
80000214:	00812423          	sw	s0,8(sp)
80000218:	0ff0000f          	fence
8000021c:	00100193          	li	gp,1
80000220:	00000073          	ecall

80000224 <end_testcode>:
80000224:	c0001073          	unimp
	...

Disassembly of section .tohost:

80001000 <tohost>:
	...

80001100 <fromhost>:
	...

Disassembly of section .data:

80002000 <begin_signature>:
80002000:	ffff                	0xffff
80002002:	ffff                	0xffff
80002004:	ffff                	0xffff
80002006:	ffff                	0xffff
80002008:	ffff                	0xffff
8000200a:	ffff                	0xffff
8000200c:	ffff                	0xffff
8000200e:	ffff                	0xffff
80002010:	ffff                	0xffff
80002012:	ffff                	0xffff
80002014:	ffff                	0xffff
80002016:	ffff                	0xffff

80002018 <test_B_res>:
80002018:	ffff                	0xffff
8000201a:	ffff                	0xffff
8000201c:	ffff                	0xffff
8000201e:	ffff                	0xffff
80002020:	ffff                	0xffff
80002022:	ffff                	0xffff
80002024:	ffff                	0xffff
80002026:	ffff                	0xffff

80002028 <test_C_res>:
80002028:	ffff                	0xffff
8000202a:	ffff                	0xffff

8000202c <test_D_res>:
8000202c:	ffff                	0xffff
8000202e:	ffff                	0xffff
80002030:	ffff                	0xffff
80002032:	ffff                	0xffff

80002034 <test_E_res>:
80002034:	ffff                	0xffff
80002036:	ffff                	0xffff
80002038:	ffff                	0xffff
8000203a:	ffff                	0xffff
8000203c:	ffff                	0xffff
8000203e:	ffff                	0xffff
