
/home/lenovo/riscv-compliance/work//I-JAL-01.elf:     file format elf32-littleriscv


Disassembly of section .text.init:

80000000 <_start>:
80000000:	04c0006f          	j	8000004c <reset_vector>

80000004 <trap_vector>:
80000004:	34202f73          	csrr	t5,mcause
80000008:	00800f93          	li	t6,8
8000000c:	03ff0a63          	beq	t5,t6,80000040 <write_tohost>
80000010:	00900f93          	li	t6,9
80000014:	03ff0663          	beq	t5,t6,80000040 <write_tohost>
80000018:	00b00f93          	li	t6,11
8000001c:	03ff0263          	beq	t5,t6,80000040 <write_tohost>
80000020:	80000f17          	auipc	t5,0x80000
80000024:	fe0f0f13          	addi	t5,t5,-32 # 0 <_start-0x80000000>
80000028:	000f0463          	beqz	t5,80000030 <trap_vector+0x2c>
8000002c:	000f0067          	jr	t5
80000030:	34202f73          	csrr	t5,mcause
80000034:	000f5463          	bgez	t5,8000003c <handle_exception>
80000038:	0040006f          	j	8000003c <handle_exception>

8000003c <handle_exception>:
8000003c:	5391e193          	ori	gp,gp,1337

80000040 <write_tohost>:
80000040:	00001f17          	auipc	t5,0x1
80000044:	fc3f2023          	sw	gp,-64(t5) # 80001000 <tohost>
80000048:	ff9ff06f          	j	80000040 <write_tohost>

8000004c <reset_vector>:
8000004c:	f1402573          	csrr	a0,mhartid
80000050:	00051063          	bnez	a0,80000050 <reset_vector+0x4>
80000054:	00000297          	auipc	t0,0x0
80000058:	01028293          	addi	t0,t0,16 # 80000064 <reset_vector+0x18>
8000005c:	30529073          	csrw	mtvec,t0
80000060:	18005073          	csrwi	satp,0
80000064:	00000297          	auipc	t0,0x0
80000068:	01c28293          	addi	t0,t0,28 # 80000080 <reset_vector+0x34>
8000006c:	30529073          	csrw	mtvec,t0
80000070:	fff00293          	li	t0,-1
80000074:	3b029073          	csrw	pmpaddr0,t0
80000078:	01f00293          	li	t0,31
8000007c:	3a029073          	csrw	pmpcfg0,t0
80000080:	00000297          	auipc	t0,0x0
80000084:	01828293          	addi	t0,t0,24 # 80000098 <reset_vector+0x4c>
80000088:	30529073          	csrw	mtvec,t0
8000008c:	30205073          	csrwi	medeleg,0
80000090:	30305073          	csrwi	mideleg,0
80000094:	30405073          	csrwi	mie,0
80000098:	00000193          	li	gp,0
8000009c:	00000297          	auipc	t0,0x0
800000a0:	f6828293          	addi	t0,t0,-152 # 80000004 <trap_vector>
800000a4:	30529073          	csrw	mtvec,t0
800000a8:	00100513          	li	a0,1
800000ac:	01f51513          	slli	a0,a0,0x1f
800000b0:	00054863          	bltz	a0,800000c0 <reset_vector+0x74>
800000b4:	0ff0000f          	fence
800000b8:	00100193          	li	gp,1
800000bc:	00000073          	ecall
800000c0:	80000297          	auipc	t0,0x80000
800000c4:	f4028293          	addi	t0,t0,-192 # 0 <_start-0x80000000>
800000c8:	00028e63          	beqz	t0,800000e4 <reset_vector+0x98>
800000cc:	10529073          	csrw	stvec,t0
800000d0:	0000b2b7          	lui	t0,0xb
800000d4:	10928293          	addi	t0,t0,265 # b109 <_start-0x7fff4ef7>
800000d8:	30229073          	csrw	medeleg,t0
800000dc:	30202373          	csrr	t1,medeleg
800000e0:	f4629ee3          	bne	t0,t1,8000003c <handle_exception>
800000e4:	30005073          	csrwi	mstatus,0
800000e8:	00002537          	lui	a0,0x2
800000ec:	80050513          	addi	a0,a0,-2048 # 1800 <_start-0x7fffe800>
800000f0:	30052073          	csrs	mstatus,a0
800000f4:	00000297          	auipc	t0,0x0
800000f8:	01428293          	addi	t0,t0,20 # 80000108 <begin_testcode>
800000fc:	34129073          	csrw	mepc,t0
80000100:	f1402573          	csrr	a0,mhartid
80000104:	30200073          	mret

80000108 <begin_testcode>:
80000108:	00002097          	auipc	ra,0x2
8000010c:	f0808093          	addi	ra,ra,-248 # 80002010 <begin_signature>
80000110:	12345137          	lui	sp,0x12345
80000114:	67810113          	addi	sp,sp,1656 # 12345678 <_start-0x6dcba988>
80000118:	0080006f          	j	80000120 <begin_testcode+0x18>
8000011c:	00000113          	li	sp,0
80000120:	0000a023          	sw	zero,0(ra)
80000124:	0020a223          	sw	sp,4(ra)
80000128:	00002097          	auipc	ra,0x2
8000012c:	ef008093          	addi	ra,ra,-272 # 80002018 <test_A2_res>
80000130:	fff00113          	li	sp,-1
80000134:	fff00193          	li	gp,-1
80000138:	0fedd237          	lui	tp,0xfedd
8000013c:	ba920213          	addi	tp,tp,-1111 # fedcba9 <_start-0x70123457>
80000140:	0280006f          	j	80000168 <begin_testcode+0x60>
80000144:	00000113          	li	sp,0
80000148:	00000193          	li	gp,0
8000014c:	00000213          	li	tp,0
80000150:	876541b7          	lui	gp,0x87654
80000154:	32118193          	addi	gp,gp,801 # 87654321 <_end+0x76522c1>
80000158:	0280006f          	j	80000180 <begin_testcode+0x78>
8000015c:	00000113          	li	sp,0
80000160:	00000193          	li	gp,0
80000164:	00000213          	li	tp,0
80000168:	9abce137          	lui	sp,0x9abce
8000016c:	ef010113          	addi	sp,sp,-272 # 9abcdef0 <_end+0x1abcbe90>
80000170:	fe1ff06f          	j	80000150 <begin_testcode+0x48>
80000174:	00000113          	li	sp,0
80000178:	00000193          	li	gp,0
8000017c:	00000213          	li	tp,0
80000180:	0000a023          	sw	zero,0(ra)
80000184:	0020a223          	sw	sp,4(ra)
80000188:	0030a423          	sw	gp,8(ra)
8000018c:	0040a623          	sw	tp,12(ra)
80000190:	00002497          	auipc	s1,0x2
80000194:	e7048493          	addi	s1,s1,-400 # 80002000 <test_B1_data>
80000198:	00002517          	auipc	a0,0x2
8000019c:	e9050513          	addi	a0,a0,-368 # 80002028 <test_B1_res>
800001a0:	fff00113          	li	sp,-1
800001a4:	fff00193          	li	gp,-1
800001a8:	fff00213          	li	tp,-1
800001ac:	fff00293          	li	t0,-1
800001b0:	55555337          	lui	t1,0x55555
800001b4:	55530313          	addi	t1,t1,1365 # 55555555 <_start-0x2aaaaaab>
800001b8:	0004ac83          	lw	s9,0(s1)
800001bc:	0044ac03          	lw	s8,4(s1)
800001c0:	01c000ef          	jal	ra,800001dc <B1b_link+0xc>

800001c4 <B1a_link>:
800001c4:	222221b7          	lui	gp,0x22222
800001c8:	22218193          	addi	gp,gp,546 # 22222222 <_start-0x5dddddde>
800001cc:	03000fef          	jal	t6,800001fc <B1b_link+0x2c>

800001d0 <B1b_link>:
800001d0:	444442b7          	lui	t0,0x44444
800001d4:	44428293          	addi	t0,t0,1092 # 44444444 <_start-0x3bbbbbbc>
800001d8:	0440006f          	j	8000021c <B1b_link+0x4c>
800001dc:	11111137          	lui	sp,0x11111
800001e0:	11110113          	addi	sp,sp,273 # 11111111 <_start-0x6eeeeeef>
800001e4:	00008067          	ret
800001e8:	00000113          	li	sp,0
800001ec:	00000193          	li	gp,0
800001f0:	00000213          	li	tp,0
800001f4:	00000293          	li	t0,0
800001f8:	00000313          	li	t1,0
800001fc:	33333237          	lui	tp,0x33333
80000200:	33320213          	addi	tp,tp,819 # 33333333 <_start-0x4ccccccd>
80000204:	000f8067          	jr	t6
80000208:	00000113          	li	sp,0
8000020c:	00000193          	li	gp,0
80000210:	00000213          	li	tp,0
80000214:	00000293          	li	t0,0
80000218:	00000313          	li	t1,0
8000021c:	0190c3b3          	xor	t2,ra,s9
80000220:	018fc433          	xor	s0,t6,s8
80000224:	00252023          	sw	sp,0(a0)
80000228:	00352223          	sw	gp,4(a0)
8000022c:	00452423          	sw	tp,8(a0)
80000230:	00552623          	sw	t0,12(a0)
80000234:	00652823          	sw	t1,16(a0)
80000238:	00752a23          	sw	t2,20(a0)
8000023c:	00852c23          	sw	s0,24(a0)
80000240:	00002497          	auipc	s1,0x2
80000244:	dc848493          	addi	s1,s1,-568 # 80002008 <test_B2_data>
80000248:	00002517          	auipc	a0,0x2
8000024c:	dfc50513          	addi	a0,a0,-516 # 80002044 <test_B2_res>
80000250:	fff00113          	li	sp,-1
80000254:	fff00193          	li	gp,-1
80000258:	fff00213          	li	tp,-1
8000025c:	fff00293          	li	t0,-1
80000260:	fff00313          	li	t1,-1
80000264:	0004ac03          	lw	s8,0(s1)
80000268:	0044ac83          	lw	s9,4(s1)
8000026c:	0240006f          	j	80000290 <B1b_link+0xc0>
80000270:	777771b7          	lui	gp,0x77777
80000274:	77718193          	addi	gp,gp,1911 # 77777777 <_start-0x8888889>
80000278:	000f8067          	jr	t6
8000027c:	00000113          	li	sp,0
80000280:	00000193          	li	gp,0
80000284:	00000213          	li	tp,0
80000288:	00000293          	li	t0,0
8000028c:	00000313          	li	t1,0
80000290:	66666137          	lui	sp,0x66666
80000294:	66610113          	addi	sp,sp,1638 # 66666666 <_start-0x1999999a>
80000298:	fd9fffef          	jal	t6,80000270 <B1b_link+0xa0>

8000029c <B2b_link>:
8000029c:	88889237          	lui	tp,0x88889
800002a0:	88820213          	addi	tp,tp,-1912 # 88888888 <_end+0x8886828>
800002a4:	010000ef          	jal	ra,800002b4 <B2c_link+0xc>

800002a8 <B2c_link>:
800002a8:	aaaab337          	lui	t1,0xaaaab
800002ac:	aaa30313          	addi	t1,t1,-1366 # aaaaaaaa <_end+0x2aaa8a4a>
800002b0:	0240006f          	j	800002d4 <B2c_link+0x2c>
800002b4:	9999a2b7          	lui	t0,0x9999a
800002b8:	99928293          	addi	t0,t0,-1639 # 99999999 <_end+0x19997939>
800002bc:	00008067          	ret
800002c0:	00000113          	li	sp,0
800002c4:	00000193          	li	gp,0
800002c8:	00000213          	li	tp,0
800002cc:	00000293          	li	t0,0
800002d0:	00000313          	li	t1,0
800002d4:	018fc3b3          	xor	t2,t6,s8
800002d8:	0190c433          	xor	s0,ra,s9
800002dc:	00252023          	sw	sp,0(a0)
800002e0:	00352223          	sw	gp,4(a0)
800002e4:	00452423          	sw	tp,8(a0)
800002e8:	00552623          	sw	t0,12(a0)
800002ec:	00652823          	sw	t1,16(a0)
800002f0:	00752a23          	sw	t2,20(a0)
800002f4:	00852c23          	sw	s0,24(a0)
800002f8:	0ff0000f          	fence
800002fc:	00100193          	li	gp,1
80000300:	00000073          	ecall

80000304 <end_testcode>:
80000304:	c0001073          	unimp
	...

Disassembly of section .tohost:

80001000 <tohost>:
	...

80001100 <fromhost>:
	...

Disassembly of section .data:

80002000 <test_B1_data>:
80002000:	01c4                	addi	s1,sp,196
80002002:	8000                	0x8000
80002004:	01d0                	addi	a2,sp,196
80002006:	8000                	0x8000

80002008 <test_B2_data>:
80002008:	029c                	addi	a5,sp,320
8000200a:	8000                	0x8000
8000200c:	02a8                	addi	a0,sp,328
8000200e:	8000                	0x8000

80002010 <begin_signature>:
80002010:	ffff                	0xffff
80002012:	ffff                	0xffff
80002014:	ffff                	0xffff
80002016:	ffff                	0xffff

80002018 <test_A2_res>:
80002018:	ffff                	0xffff
8000201a:	ffff                	0xffff
8000201c:	ffff                	0xffff
8000201e:	ffff                	0xffff
80002020:	ffff                	0xffff
80002022:	ffff                	0xffff
80002024:	ffff                	0xffff
80002026:	ffff                	0xffff

80002028 <test_B1_res>:
80002028:	ffff                	0xffff
8000202a:	ffff                	0xffff
8000202c:	ffff                	0xffff
8000202e:	ffff                	0xffff
80002030:	ffff                	0xffff
80002032:	ffff                	0xffff
80002034:	ffff                	0xffff
80002036:	ffff                	0xffff
80002038:	ffff                	0xffff
8000203a:	ffff                	0xffff
8000203c:	ffff                	0xffff
8000203e:	ffff                	0xffff
80002040:	ffff                	0xffff
80002042:	ffff                	0xffff

80002044 <test_B2_res>:
80002044:	ffff                	0xffff
80002046:	ffff                	0xffff
80002048:	ffff                	0xffff
8000204a:	ffff                	0xffff
8000204c:	ffff                	0xffff
8000204e:	ffff                	0xffff
80002050:	ffff                	0xffff
80002052:	ffff                	0xffff
80002054:	ffff                	0xffff
80002056:	ffff                	0xffff
80002058:	ffff                	0xffff
8000205a:	ffff                	0xffff
8000205c:	ffff                	0xffff
8000205e:	ffff                	0xffff
