
/home/lenovo/riscv-compliance/work//I-LUI-01.elf:     file format elf32-littleriscv


Disassembly of section .text.init:

80000000 <_start>:
80000000:	04c0006f          	j	8000004c <reset_vector>

80000004 <trap_vector>:
80000004:	34202f73          	csrr	t5,mcause
80000008:	00800f93          	li	t6,8
8000000c:	03ff0a63          	beq	t5,t6,80000040 <write_tohost>
80000010:	00900f93          	li	t6,9
80000014:	03ff0663          	beq	t5,t6,80000040 <write_tohost>
80000018:	00b00f93          	li	t6,11
8000001c:	03ff0263          	beq	t5,t6,80000040 <write_tohost>
80000020:	80000f17          	auipc	t5,0x80000
80000024:	fe0f0f13          	addi	t5,t5,-32 # 0 <_start-0x80000000>
80000028:	000f0463          	beqz	t5,80000030 <trap_vector+0x2c>
8000002c:	000f0067          	jr	t5
80000030:	34202f73          	csrr	t5,mcause
80000034:	000f5463          	bgez	t5,8000003c <handle_exception>
80000038:	0040006f          	j	8000003c <handle_exception>

8000003c <handle_exception>:
8000003c:	5391e193          	ori	gp,gp,1337

80000040 <write_tohost>:
80000040:	00001f17          	auipc	t5,0x1
80000044:	fc3f2023          	sw	gp,-64(t5) # 80001000 <tohost>
80000048:	ff9ff06f          	j	80000040 <write_tohost>

8000004c <reset_vector>:
8000004c:	f1402573          	csrr	a0,mhartid
80000050:	00051063          	bnez	a0,80000050 <reset_vector+0x4>
80000054:	00000297          	auipc	t0,0x0
80000058:	01028293          	addi	t0,t0,16 # 80000064 <reset_vector+0x18>
8000005c:	30529073          	csrw	mtvec,t0
80000060:	18005073          	csrwi	satp,0
80000064:	00000297          	auipc	t0,0x0
80000068:	01c28293          	addi	t0,t0,28 # 80000080 <reset_vector+0x34>
8000006c:	30529073          	csrw	mtvec,t0
80000070:	fff00293          	li	t0,-1
80000074:	3b029073          	csrw	pmpaddr0,t0
80000078:	01f00293          	li	t0,31
8000007c:	3a029073          	csrw	pmpcfg0,t0
80000080:	00000297          	auipc	t0,0x0
80000084:	01828293          	addi	t0,t0,24 # 80000098 <reset_vector+0x4c>
80000088:	30529073          	csrw	mtvec,t0
8000008c:	30205073          	csrwi	medeleg,0
80000090:	30305073          	csrwi	mideleg,0
80000094:	30405073          	csrwi	mie,0
80000098:	00000193          	li	gp,0
8000009c:	00000297          	auipc	t0,0x0
800000a0:	f6828293          	addi	t0,t0,-152 # 80000004 <trap_vector>
800000a4:	30529073          	csrw	mtvec,t0
800000a8:	00100513          	li	a0,1
800000ac:	01f51513          	slli	a0,a0,0x1f
800000b0:	00054863          	bltz	a0,800000c0 <reset_vector+0x74>
800000b4:	0ff0000f          	fence
800000b8:	00100193          	li	gp,1
800000bc:	00000073          	ecall
800000c0:	80000297          	auipc	t0,0x80000
800000c4:	f4028293          	addi	t0,t0,-192 # 0 <_start-0x80000000>
800000c8:	00028e63          	beqz	t0,800000e4 <reset_vector+0x98>
800000cc:	10529073          	csrw	stvec,t0
800000d0:	0000b2b7          	lui	t0,0xb
800000d4:	10928293          	addi	t0,t0,265 # b109 <_start-0x7fff4ef7>
800000d8:	30229073          	csrw	medeleg,t0
800000dc:	30202373          	csrr	t1,medeleg
800000e0:	f4629ee3          	bne	t0,t1,8000003c <handle_exception>
800000e4:	30005073          	csrwi	mstatus,0
800000e8:	00002537          	lui	a0,0x2
800000ec:	80050513          	addi	a0,a0,-2048 # 1800 <_start-0x7fffe800>
800000f0:	30052073          	csrs	mstatus,a0
800000f4:	00000297          	auipc	t0,0x0
800000f8:	01428293          	addi	t0,t0,20 # 80000108 <begin_testcode>
800000fc:	34129073          	csrw	mepc,t0
80000100:	f1402573          	csrr	a0,mhartid
80000104:	30200073          	mret

80000108 <begin_testcode>:
80000108:	00002797          	auipc	a5,0x2
8000010c:	f0878793          	addi	a5,a5,-248 # 80002010 <begin_signature>
80000110:	000000b7          	lui	ra,0x0
80000114:	000011b7          	lui	gp,0x1
80000118:	fffff2b7          	lui	t0,0xfffff
8000011c:	7ffffeb7          	lui	t4,0x7ffff
80000120:	80000fb7          	lui	t6,0x80000
80000124:	0017a023          	sw	ra,0(a5)
80000128:	0037a223          	sw	gp,4(a5)
8000012c:	0057a423          	sw	t0,8(a5)
80000130:	01d7a623          	sw	t4,12(a5)
80000134:	01f7a823          	sw	t6,16(a5)
80000138:	00002797          	auipc	a5,0x2
8000013c:	ec878793          	addi	a5,a5,-312 # 80002000 <test_B_data>
80000140:	00002817          	auipc	a6,0x2
80000144:	ee480813          	addi	a6,a6,-284 # 80002024 <test_B_res>
80000148:	0007a103          	lw	sp,0(a5)
8000014c:	0007a203          	lw	tp,0(a5)
80000150:	0007a303          	lw	t1,0(a5)
80000154:	0007ae03          	lw	t3,0(a5)
80000158:	0007af03          	lw	t5,0(a5)
8000015c:	80000137          	lui	sp,0x80000
80000160:	7ffff237          	lui	tp,0x7ffff
80000164:	00000337          	lui	t1,0x0
80000168:	00001e37          	lui	t3,0x1
8000016c:	ffffff37          	lui	t5,0xfffff
80000170:	00282023          	sw	sp,0(a6)
80000174:	00482223          	sw	tp,4(a6)
80000178:	00682423          	sw	t1,8(a6)
8000017c:	01c82623          	sw	t3,12(a6)
80000180:	01e82823          	sw	t5,16(a6)
80000184:	00002897          	auipc	a7,0x2
80000188:	eb488893          	addi	a7,a7,-332 # 80002038 <test_C_res>
8000018c:	427270b7          	lui	ra,0x42727
80000190:	e6f08093          	addi	ra,ra,-401 # 42726e6f <_start-0x3d8d9191>
80000194:	123457b7          	lui	a5,0x12345
80000198:	67878793          	addi	a5,a5,1656 # 12345678 <_start-0x6dcba988>
8000019c:	9abcef37          	lui	t5,0x9abce
800001a0:	ef0f0f13          	addi	t5,t5,-272 # 9abcdef0 <_end+0x1abcbea0>
800001a4:	42727137          	lui	sp,0x42727
800001a8:	e6f10113          	addi	sp,sp,-401 # 42726e6f <_start-0x3d8d9191>
800001ac:	12345837          	lui	a6,0x12345
800001b0:	67880813          	addi	a6,a6,1656 # 12345678 <_start-0x6dcba988>
800001b4:	9abcefb7          	lui	t6,0x9abce
800001b8:	ef0f8f93          	addi	t6,t6,-272 # 9abcdef0 <_end+0x1abcbea0>
800001bc:	0018a023          	sw	ra,0(a7)
800001c0:	00f8a223          	sw	a5,4(a7)
800001c4:	01e8a423          	sw	t5,8(a7)
800001c8:	0028a623          	sw	sp,12(a7)
800001cc:	0108a823          	sw	a6,16(a7)
800001d0:	01f8aa23          	sw	t6,20(a7)
800001d4:	0ff0000f          	fence
800001d8:	00100193          	li	gp,1
800001dc:	00000073          	ecall

800001e0 <end_testcode>:
800001e0:	c0001073          	unimp
	...

Disassembly of section .tohost:

80001000 <tohost>:
	...

80001100 <fromhost>:
	...

Disassembly of section .data:

80002000 <test_B_data>:
80002000:	1111                	addi	sp,sp,-28
80002002:	1111                	addi	sp,sp,-28
	...

80002010 <begin_signature>:
80002010:	ffff                	0xffff
80002012:	ffff                	0xffff
80002014:	ffff                	0xffff
80002016:	ffff                	0xffff
80002018:	ffff                	0xffff
8000201a:	ffff                	0xffff
8000201c:	ffff                	0xffff
8000201e:	ffff                	0xffff
80002020:	ffff                	0xffff
80002022:	ffff                	0xffff

80002024 <test_B_res>:
80002024:	ffff                	0xffff
80002026:	ffff                	0xffff
80002028:	ffff                	0xffff
8000202a:	ffff                	0xffff
8000202c:	ffff                	0xffff
8000202e:	ffff                	0xffff
80002030:	ffff                	0xffff
80002032:	ffff                	0xffff
80002034:	ffff                	0xffff
80002036:	ffff                	0xffff

80002038 <test_C_res>:
80002038:	ffff                	0xffff
8000203a:	ffff                	0xffff
8000203c:	ffff                	0xffff
8000203e:	ffff                	0xffff
80002040:	ffff                	0xffff
80002042:	ffff                	0xffff
80002044:	ffff                	0xffff
80002046:	ffff                	0xffff
80002048:	ffff                	0xffff
8000204a:	ffff                	0xffff
8000204c:	ffff                	0xffff
8000204e:	ffff                	0xffff
