
/home/lenovo/riscv-compliance/work//I-MISALIGN_JMP-01.elf:     file format elf32-littleriscv


Disassembly of section .text.init:

80000000 <_start>:
80000000:	04c0006f          	j	8000004c <reset_vector>

80000004 <trap_vector>:
80000004:	34202f73          	csrr	t5,mcause
80000008:	00800f93          	li	t6,8
8000000c:	03ff0a63          	beq	t5,t6,80000040 <write_tohost>
80000010:	00900f93          	li	t6,9
80000014:	03ff0663          	beq	t5,t6,80000040 <write_tohost>
80000018:	00b00f93          	li	t6,11
8000001c:	03ff0263          	beq	t5,t6,80000040 <write_tohost>
80000020:	80000f17          	auipc	t5,0x80000
80000024:	fe0f0f13          	addi	t5,t5,-32 # 0 <_start-0x80000000>
80000028:	000f0463          	beqz	t5,80000030 <trap_vector+0x2c>
8000002c:	000f0067          	jr	t5
80000030:	34202f73          	csrr	t5,mcause
80000034:	000f5463          	bgez	t5,8000003c <handle_exception>
80000038:	0040006f          	j	8000003c <handle_exception>

8000003c <handle_exception>:
8000003c:	5391e193          	ori	gp,gp,1337

80000040 <write_tohost>:
80000040:	00001f17          	auipc	t5,0x1
80000044:	fc3f2023          	sw	gp,-64(t5) # 80001000 <tohost>
80000048:	ff9ff06f          	j	80000040 <write_tohost>

8000004c <reset_vector>:
8000004c:	f1402573          	csrr	a0,mhartid
80000050:	00051063          	bnez	a0,80000050 <reset_vector+0x4>
80000054:	00000297          	auipc	t0,0x0
80000058:	01028293          	addi	t0,t0,16 # 80000064 <reset_vector+0x18>
8000005c:	30529073          	csrw	mtvec,t0
80000060:	18005073          	csrwi	satp,0
80000064:	00000297          	auipc	t0,0x0
80000068:	01c28293          	addi	t0,t0,28 # 80000080 <reset_vector+0x34>
8000006c:	30529073          	csrw	mtvec,t0
80000070:	fff00293          	li	t0,-1
80000074:	3b029073          	csrw	pmpaddr0,t0
80000078:	01f00293          	li	t0,31
8000007c:	3a029073          	csrw	pmpcfg0,t0
80000080:	00000297          	auipc	t0,0x0
80000084:	01828293          	addi	t0,t0,24 # 80000098 <reset_vector+0x4c>
80000088:	30529073          	csrw	mtvec,t0
8000008c:	30205073          	csrwi	medeleg,0
80000090:	30305073          	csrwi	mideleg,0
80000094:	30405073          	csrwi	mie,0
80000098:	00000193          	li	gp,0
8000009c:	00000297          	auipc	t0,0x0
800000a0:	f6828293          	addi	t0,t0,-152 # 80000004 <trap_vector>
800000a4:	30529073          	csrw	mtvec,t0
800000a8:	00100513          	li	a0,1
800000ac:	01f51513          	slli	a0,a0,0x1f
800000b0:	00054863          	bltz	a0,800000c0 <reset_vector+0x74>
800000b4:	0ff0000f          	fence
800000b8:	00100193          	li	gp,1
800000bc:	00000073          	ecall
800000c0:	80000297          	auipc	t0,0x80000
800000c4:	f4028293          	addi	t0,t0,-192 # 0 <_start-0x80000000>
800000c8:	00028e63          	beqz	t0,800000e4 <reset_vector+0x98>
800000cc:	10529073          	csrw	stvec,t0
800000d0:	0000b2b7          	lui	t0,0xb
800000d4:	10928293          	addi	t0,t0,265 # b109 <_start-0x7fff4ef7>
800000d8:	30229073          	csrw	medeleg,t0
800000dc:	30202373          	csrr	t1,medeleg
800000e0:	f4629ee3          	bne	t0,t1,8000003c <handle_exception>
800000e4:	30005073          	csrwi	mstatus,0
800000e8:	00002537          	lui	a0,0x2
800000ec:	80050513          	addi	a0,a0,-2048 # 1800 <_start-0x7fffe800>
800000f0:	30052073          	csrs	mstatus,a0
800000f4:	00000297          	auipc	t0,0x0
800000f8:	01428293          	addi	t0,t0,20 # 80000108 <begin_testcode>
800000fc:	34129073          	csrw	mepc,t0
80000100:	f1402573          	csrr	a0,mhartid
80000104:	30200073          	mret

80000108 <begin_testcode>:
80000108:	00000097          	auipc	ra,0x0
8000010c:	20808093          	addi	ra,ra,520 # 80000310 <_trap_handler>
80000110:	30509ff3          	csrrw	t6,mtvec,ra
80000114:	30127073          	csrci	misa,4
80000118:	00002097          	auipc	ra,0x2
8000011c:	ee808093          	addi	ra,ra,-280 # 80002000 <begin_signature>
80000120:	11111137          	lui	sp,0x11111
80000124:	11110113          	addi	sp,sp,273 # 11111111 <_start-0x6eeeeeef>
80000128:	00a0006f          	j	80000132 <begin_testcode+0x2a>
8000012c:	00000113          	li	sp,0
80000130:	00002097          	auipc	ra,0x2
80000134:	edc08093          	addi	ra,ra,-292 # 8000200c <test_A2_res>
80000138:	22222137          	lui	sp,0x22222
8000013c:	22210113          	addi	sp,sp,546 # 22222222 <_start-0x5dddddde>
80000140:	00000217          	auipc	tp,0x0
80000144:	01120213          	addi	tp,tp,17 # 80000151 <begin_testcode+0x49>
80000148:	00020067          	jr	tp
8000014c:	00000113          	li	sp,0
80000150:	0020a023          	sw	sp,0(ra)
80000154:	00408093          	addi	ra,ra,4
80000158:	33333137          	lui	sp,0x33333
8000015c:	33310113          	addi	sp,sp,819 # 33333333 <_start-0x4ccccccd>
80000160:	00000217          	auipc	tp,0x0
80000164:	01020213          	addi	tp,tp,16 # 80000170 <begin_testcode+0x68>
80000168:	00120067          	jr	1(tp) # 1 <_start-0x7fffffff>
8000016c:	00000113          	li	sp,0
80000170:	0020a023          	sw	sp,0(ra)
80000174:	00408093          	addi	ra,ra,4
80000178:	44444137          	lui	sp,0x44444
8000017c:	44410113          	addi	sp,sp,1092 # 44444444 <_start-0x3bbbbbbc>
80000180:	00000217          	auipc	tp,0x0
80000184:	01420213          	addi	tp,tp,20 # 80000194 <begin_testcode+0x8c>
80000188:	ffd20067          	jr	-3(tp) # fffffffd <_end+0x7fffdf6d>
8000018c:	00000113          	li	sp,0
80000190:	0020a023          	sw	sp,0(ra)
80000194:	00408093          	addi	ra,ra,4
80000198:	00002097          	auipc	ra,0x2
8000019c:	e8008093          	addi	ra,ra,-384 # 80002018 <test_A3_res_exc>
800001a0:	55555137          	lui	sp,0x55555
800001a4:	55510113          	addi	sp,sp,1365 # 55555555 <_start-0x2aaaaaab>
800001a8:	00000217          	auipc	tp,0x0
800001ac:	01220213          	addi	tp,tp,18 # 800001ba <begin_testcode+0xb2>
800001b0:	00020067          	jr	tp
800001b4:	00000113          	li	sp,0
800001b8:	66666137          	lui	sp,0x66666
800001bc:	66610113          	addi	sp,sp,1638 # 66666666 <_start-0x1999999a>
800001c0:	00000217          	auipc	tp,0x0
800001c4:	01320213          	addi	tp,tp,19 # 800001d3 <begin_testcode+0xcb>
800001c8:	00020067          	jr	tp
800001cc:	00000113          	li	sp,0
800001d0:	77777137          	lui	sp,0x77777
800001d4:	77710113          	addi	sp,sp,1911 # 77777777 <_start-0x8888889>
800001d8:	00000217          	auipc	tp,0x0
800001dc:	01020213          	addi	tp,tp,16 # 800001e8 <begin_testcode+0xe0>
800001e0:	00220067          	jr	2(tp) # 2 <_start-0x7ffffffe>
800001e4:	00000113          	li	sp,0
800001e8:	88889137          	lui	sp,0x88889
800001ec:	88810113          	addi	sp,sp,-1912 # 88888888 <_end+0x88867f8>
800001f0:	00000217          	auipc	tp,0x0
800001f4:	01020213          	addi	tp,tp,16 # 80000200 <begin_testcode+0xf8>
800001f8:	00320067          	jr	3(tp) # 3 <_start-0x7ffffffd>
800001fc:	00000113          	li	sp,0
80000200:	00002097          	auipc	ra,0x2
80000204:	e4808093          	addi	ra,ra,-440 # 80002048 <test_B1_res_exc>
80000208:	00500293          	li	t0,5
8000020c:	00600313          	li	t1,6
80000210:	00628763          	beq	t0,t1,8000021e <begin_testcode+0x116>
80000214:	9999a137          	lui	sp,0x9999a
80000218:	99910113          	addi	sp,sp,-1639 # 99999999 <_end+0x19997909>
8000021c:	00000013          	nop
80000220:	00000013          	nop
80000224:	00528563          	beq	t0,t0,8000022e <begin_testcode+0x126>
80000228:	00000113          	li	sp,0
8000022c:	00002097          	auipc	ra,0x2
80000230:	e2808093          	addi	ra,ra,-472 # 80002054 <test_B2_res_exc>
80000234:	00500293          	li	t0,5
80000238:	00600313          	li	t1,6
8000023c:	00529763          	bne	t0,t0,8000024a <begin_testcode+0x142>
80000240:	aaaab137          	lui	sp,0xaaaab
80000244:	aaa10113          	addi	sp,sp,-1366 # aaaaaaaa <_end+0x2aaa8a1a>
80000248:	00000013          	nop
8000024c:	00000013          	nop
80000250:	00629563          	bne	t0,t1,8000025a <begin_testcode+0x152>
80000254:	00000113          	li	sp,0
80000258:	00002097          	auipc	ra,0x2
8000025c:	e0808093          	addi	ra,ra,-504 # 80002060 <test_B3_res_exc>
80000260:	00500293          	li	t0,5
80000264:	00600313          	li	t1,6
80000268:	00534763          	blt	t1,t0,80000276 <begin_testcode+0x16e>
8000026c:	bbbbc137          	lui	sp,0xbbbbc
80000270:	bbb10113          	addi	sp,sp,-1093 # bbbbbbbb <_end+0x3bbb9b2b>
80000274:	00000013          	nop
80000278:	00000013          	nop
8000027c:	0062c563          	blt	t0,t1,80000286 <begin_testcode+0x17e>
80000280:	00000113          	li	sp,0
80000284:	00002097          	auipc	ra,0x2
80000288:	de808093          	addi	ra,ra,-536 # 8000206c <test_B4_res_exc>
8000028c:	00500293          	li	t0,5
80000290:	00600313          	li	t1,6
80000294:	00536763          	bltu	t1,t0,800002a2 <begin_testcode+0x19a>
80000298:	ccccd137          	lui	sp,0xccccd
8000029c:	ccc10113          	addi	sp,sp,-820 # cccccccc <_end+0x4cccac3c>
800002a0:	00000013          	nop
800002a4:	00000013          	nop
800002a8:	0062e563          	bltu	t0,t1,800002b2 <begin_testcode+0x1aa>
800002ac:	00000113          	li	sp,0
800002b0:	00002097          	auipc	ra,0x2
800002b4:	dc808093          	addi	ra,ra,-568 # 80002078 <test_B5_res_exc>
800002b8:	00500293          	li	t0,5
800002bc:	00600313          	li	t1,6
800002c0:	0062d763          	ble	t1,t0,800002ce <begin_testcode+0x1c6>
800002c4:	dddde137          	lui	sp,0xdddde
800002c8:	ddd10113          	addi	sp,sp,-547 # dddddddd <_end+0x5dddbd4d>
800002cc:	00000013          	nop
800002d0:	00000013          	nop
800002d4:	00535563          	ble	t0,t1,800002de <begin_testcode+0x1d6>
800002d8:	00000113          	li	sp,0
800002dc:	00002097          	auipc	ra,0x2
800002e0:	da808093          	addi	ra,ra,-600 # 80002084 <test_B6_res_exc>
800002e4:	00500293          	li	t0,5
800002e8:	00600313          	li	t1,6
800002ec:	0062f763          	bleu	t1,t0,800002fa <begin_testcode+0x1f2>
800002f0:	eeeef137          	lui	sp,0xeeeef
800002f4:	eee10113          	addi	sp,sp,-274 # eeeeeeee <_end+0x6eeece5e>
800002f8:	00000013          	nop
800002fc:	00000013          	nop
80000300:	00537563          	bleu	t0,t1,8000030a <begin_testcode+0x202>
80000304:	00000113          	li	sp,0
80000308:	305f9073          	csrw	mtvec,t6
8000030c:	0300006f          	j	8000033c <test_end>

80000310 <_trap_handler>:
80000310:	34302f73          	csrr	t5,mbadaddr
80000314:	ffef0f13          	addi	t5,t5,-2
80000318:	341f1073          	csrw	mepc,t5
8000031c:	34302f73          	csrr	t5,mbadaddr
80000320:	003f7f13          	andi	t5,t5,3
80000324:	01e0a023          	sw	t5,0(ra)
80000328:	34202f73          	csrr	t5,mcause
8000032c:	01e0a223          	sw	t5,4(ra)
80000330:	0020a423          	sw	sp,8(ra)
80000334:	00c08093          	addi	ra,ra,12
80000338:	30200073          	mret

8000033c <test_end>:
8000033c:	0ff0000f          	fence
80000340:	00100193          	li	gp,1
80000344:	00000073          	ecall

80000348 <end_testcode>:
80000348:	c0001073          	unimp
	...

Disassembly of section .tohost:

80001000 <tohost>:
	...

80001100 <fromhost>:
	...

Disassembly of section .data:

80002000 <begin_signature>:
80002000:	ffff                	0xffff
80002002:	ffff                	0xffff
80002004:	ffff                	0xffff
80002006:	ffff                	0xffff
80002008:	ffff                	0xffff
8000200a:	ffff                	0xffff

8000200c <test_A2_res>:
8000200c:	ffff                	0xffff
8000200e:	ffff                	0xffff
80002010:	ffff                	0xffff
80002012:	ffff                	0xffff
80002014:	ffff                	0xffff
80002016:	ffff                	0xffff

80002018 <test_A3_res_exc>:
80002018:	ffff                	0xffff
8000201a:	ffff                	0xffff
8000201c:	ffff                	0xffff
8000201e:	ffff                	0xffff
80002020:	ffff                	0xffff
80002022:	ffff                	0xffff
80002024:	ffff                	0xffff
80002026:	ffff                	0xffff
80002028:	ffff                	0xffff
8000202a:	ffff                	0xffff
8000202c:	ffff                	0xffff
8000202e:	ffff                	0xffff
80002030:	ffff                	0xffff
80002032:	ffff                	0xffff
80002034:	ffff                	0xffff
80002036:	ffff                	0xffff
80002038:	ffff                	0xffff
8000203a:	ffff                	0xffff
8000203c:	ffff                	0xffff
8000203e:	ffff                	0xffff
80002040:	ffff                	0xffff
80002042:	ffff                	0xffff
80002044:	ffff                	0xffff
80002046:	ffff                	0xffff

80002048 <test_B1_res_exc>:
80002048:	ffff                	0xffff
8000204a:	ffff                	0xffff
8000204c:	ffff                	0xffff
8000204e:	ffff                	0xffff
80002050:	ffff                	0xffff
80002052:	ffff                	0xffff

80002054 <test_B2_res_exc>:
80002054:	ffff                	0xffff
80002056:	ffff                	0xffff
80002058:	ffff                	0xffff
8000205a:	ffff                	0xffff
8000205c:	ffff                	0xffff
8000205e:	ffff                	0xffff

80002060 <test_B3_res_exc>:
80002060:	ffff                	0xffff
80002062:	ffff                	0xffff
80002064:	ffff                	0xffff
80002066:	ffff                	0xffff
80002068:	ffff                	0xffff
8000206a:	ffff                	0xffff

8000206c <test_B4_res_exc>:
8000206c:	ffff                	0xffff
8000206e:	ffff                	0xffff
80002070:	ffff                	0xffff
80002072:	ffff                	0xffff
80002074:	ffff                	0xffff
80002076:	ffff                	0xffff

80002078 <test_B5_res_exc>:
80002078:	ffff                	0xffff
8000207a:	ffff                	0xffff
8000207c:	ffff                	0xffff
8000207e:	ffff                	0xffff
80002080:	ffff                	0xffff
80002082:	ffff                	0xffff

80002084 <test_B6_res_exc>:
80002084:	ffff                	0xffff
80002086:	ffff                	0xffff
80002088:	ffff                	0xffff
8000208a:	ffff                	0xffff
8000208c:	ffff                	0xffff
8000208e:	ffff                	0xffff
