
/home/lenovo/riscv-compliance/work//I-NOP-01.elf:     file format elf32-littleriscv


Disassembly of section .text.init:

80000000 <_start>:
80000000:	04c0006f          	j	8000004c <reset_vector>

80000004 <trap_vector>:
80000004:	34202f73          	csrr	t5,mcause
80000008:	00800f93          	li	t6,8
8000000c:	03ff0a63          	beq	t5,t6,80000040 <write_tohost>
80000010:	00900f93          	li	t6,9
80000014:	03ff0663          	beq	t5,t6,80000040 <write_tohost>
80000018:	00b00f93          	li	t6,11
8000001c:	03ff0263          	beq	t5,t6,80000040 <write_tohost>
80000020:	80000f17          	auipc	t5,0x80000
80000024:	fe0f0f13          	addi	t5,t5,-32 # 0 <_start-0x80000000>
80000028:	000f0463          	beqz	t5,80000030 <trap_vector+0x2c>
8000002c:	000f0067          	jr	t5
80000030:	34202f73          	csrr	t5,mcause
80000034:	000f5463          	bgez	t5,8000003c <handle_exception>
80000038:	0040006f          	j	8000003c <handle_exception>

8000003c <handle_exception>:
8000003c:	5391e193          	ori	gp,gp,1337

80000040 <write_tohost>:
80000040:	00001f17          	auipc	t5,0x1
80000044:	fc3f2023          	sw	gp,-64(t5) # 80001000 <tohost>
80000048:	ff9ff06f          	j	80000040 <write_tohost>

8000004c <reset_vector>:
8000004c:	f1402573          	csrr	a0,mhartid
80000050:	00051063          	bnez	a0,80000050 <reset_vector+0x4>
80000054:	00000297          	auipc	t0,0x0
80000058:	01028293          	addi	t0,t0,16 # 80000064 <reset_vector+0x18>
8000005c:	30529073          	csrw	mtvec,t0
80000060:	18005073          	csrwi	satp,0
80000064:	00000297          	auipc	t0,0x0
80000068:	01c28293          	addi	t0,t0,28 # 80000080 <reset_vector+0x34>
8000006c:	30529073          	csrw	mtvec,t0
80000070:	fff00293          	li	t0,-1
80000074:	3b029073          	csrw	pmpaddr0,t0
80000078:	01f00293          	li	t0,31
8000007c:	3a029073          	csrw	pmpcfg0,t0
80000080:	00000297          	auipc	t0,0x0
80000084:	01828293          	addi	t0,t0,24 # 80000098 <reset_vector+0x4c>
80000088:	30529073          	csrw	mtvec,t0
8000008c:	30205073          	csrwi	medeleg,0
80000090:	30305073          	csrwi	mideleg,0
80000094:	30405073          	csrwi	mie,0
80000098:	00000193          	li	gp,0
8000009c:	00000297          	auipc	t0,0x0
800000a0:	f6828293          	addi	t0,t0,-152 # 80000004 <trap_vector>
800000a4:	30529073          	csrw	mtvec,t0
800000a8:	00100513          	li	a0,1
800000ac:	01f51513          	slli	a0,a0,0x1f
800000b0:	00054863          	bltz	a0,800000c0 <reset_vector+0x74>
800000b4:	0ff0000f          	fence
800000b8:	00100193          	li	gp,1
800000bc:	00000073          	ecall
800000c0:	80000297          	auipc	t0,0x80000
800000c4:	f4028293          	addi	t0,t0,-192 # 0 <_start-0x80000000>
800000c8:	00028e63          	beqz	t0,800000e4 <reset_vector+0x98>
800000cc:	10529073          	csrw	stvec,t0
800000d0:	0000b2b7          	lui	t0,0xb
800000d4:	10928293          	addi	t0,t0,265 # b109 <_start-0x7fff4ef7>
800000d8:	30229073          	csrw	medeleg,t0
800000dc:	30202373          	csrr	t1,medeleg
800000e0:	f4629ee3          	bne	t0,t1,8000003c <handle_exception>
800000e4:	30005073          	csrwi	mstatus,0
800000e8:	00002537          	lui	a0,0x2
800000ec:	80050513          	addi	a0,a0,-2048 # 1800 <_start-0x7fffe800>
800000f0:	30052073          	csrs	mstatus,a0
800000f4:	00000297          	auipc	t0,0x0
800000f8:	01428293          	addi	t0,t0,20 # 80000108 <begin_testcode>
800000fc:	34129073          	csrw	mepc,t0
80000100:	f1402573          	csrr	a0,mhartid
80000104:	30200073          	mret

80000108 <begin_testcode>:
80000108:	00002097          	auipc	ra,0x2
8000010c:	ef808093          	addi	ra,ra,-264 # 80002000 <begin_signature>
80000110:	00200113          	li	sp,2
80000114:	00300193          	li	gp,3
80000118:	00400213          	li	tp,4
8000011c:	00500293          	li	t0,5
80000120:	00600313          	li	t1,6
80000124:	00700393          	li	t2,7
80000128:	00800413          	li	s0,8
8000012c:	00900493          	li	s1,9
80000130:	00a00513          	li	a0,10
80000134:	00b00593          	li	a1,11
80000138:	00c00613          	li	a2,12
8000013c:	00d00693          	li	a3,13
80000140:	00e00713          	li	a4,14
80000144:	00f00793          	li	a5,15
80000148:	01000813          	li	a6,16
8000014c:	01100893          	li	a7,17
80000150:	01200913          	li	s2,18
80000154:	01300993          	li	s3,19
80000158:	01400a13          	li	s4,20
8000015c:	01500a93          	li	s5,21
80000160:	01600b13          	li	s6,22
80000164:	01700b93          	li	s7,23
80000168:	01800c13          	li	s8,24
8000016c:	01900c93          	li	s9,25
80000170:	01a00d13          	li	s10,26
80000174:	01b00d93          	li	s11,27
80000178:	01c00e13          	li	t3,28
8000017c:	01d00e93          	li	t4,29
80000180:	01e00f13          	li	t5,30
80000184:	01f00f93          	li	t6,31
80000188:	00000013          	nop
8000018c:	00000013          	nop
80000190:	00000013          	nop
80000194:	00000013          	nop
80000198:	00000013          	nop
8000019c:	00000013          	nop
800001a0:	0000a023          	sw	zero,0(ra)
800001a4:	0020a223          	sw	sp,4(ra)
800001a8:	0030a423          	sw	gp,8(ra)
800001ac:	0040a623          	sw	tp,12(ra)
800001b0:	0050a823          	sw	t0,16(ra)
800001b4:	0060aa23          	sw	t1,20(ra)
800001b8:	0070ac23          	sw	t2,24(ra)
800001bc:	0080ae23          	sw	s0,28(ra)
800001c0:	0290a023          	sw	s1,32(ra)
800001c4:	02a0a223          	sw	a0,36(ra)
800001c8:	02b0a423          	sw	a1,40(ra)
800001cc:	02c0a623          	sw	a2,44(ra)
800001d0:	02d0a823          	sw	a3,48(ra)
800001d4:	02e0aa23          	sw	a4,52(ra)
800001d8:	02f0ac23          	sw	a5,56(ra)
800001dc:	0300ae23          	sw	a6,60(ra)
800001e0:	0510a023          	sw	a7,64(ra)
800001e4:	0520a223          	sw	s2,68(ra)
800001e8:	0530a423          	sw	s3,72(ra)
800001ec:	0540a623          	sw	s4,76(ra)
800001f0:	0550a823          	sw	s5,80(ra)
800001f4:	0560aa23          	sw	s6,84(ra)
800001f8:	0570ac23          	sw	s7,88(ra)
800001fc:	0580ae23          	sw	s8,92(ra)
80000200:	0790a023          	sw	s9,96(ra)
80000204:	07a0a223          	sw	s10,100(ra)
80000208:	07b0a423          	sw	s11,104(ra)
8000020c:	07c0a623          	sw	t3,108(ra)
80000210:	07d0a823          	sw	t4,112(ra)
80000214:	07e0aa23          	sw	t5,116(ra)
80000218:	07f0ac23          	sw	t6,120(ra)
8000021c:	00002197          	auipc	gp,0x2
80000220:	e6018193          	addi	gp,gp,-416 # 8000207c <test_A2_res>
80000224:	00000417          	auipc	s0,0x0
80000228:	00000013          	nop
8000022c:	00000013          	nop
80000230:	00000013          	nop
80000234:	00000013          	nop
80000238:	00000013          	nop
8000023c:	00000497          	auipc	s1,0x0
80000240:	408484b3          	sub	s1,s1,s0
80000244:	0091a023          	sw	s1,0(gp)
80000248:	0ff0000f          	fence
8000024c:	00100193          	li	gp,1
80000250:	00000073          	ecall

80000254 <end_testcode>:
80000254:	c0001073          	unimp
	...

Disassembly of section .tohost:

80001000 <tohost>:
	...

80001100 <fromhost>:
	...

Disassembly of section .data:

80002000 <begin_signature>:
80002000:	ffff                	0xffff
80002002:	ffff                	0xffff
80002004:	ffff                	0xffff
80002006:	ffff                	0xffff
80002008:	ffff                	0xffff
8000200a:	ffff                	0xffff
8000200c:	ffff                	0xffff
8000200e:	ffff                	0xffff
80002010:	ffff                	0xffff
80002012:	ffff                	0xffff
80002014:	ffff                	0xffff
80002016:	ffff                	0xffff
80002018:	ffff                	0xffff
8000201a:	ffff                	0xffff
8000201c:	ffff                	0xffff
8000201e:	ffff                	0xffff
80002020:	ffff                	0xffff
80002022:	ffff                	0xffff
80002024:	ffff                	0xffff
80002026:	ffff                	0xffff
80002028:	ffff                	0xffff
8000202a:	ffff                	0xffff
8000202c:	ffff                	0xffff
8000202e:	ffff                	0xffff
80002030:	ffff                	0xffff
80002032:	ffff                	0xffff
80002034:	ffff                	0xffff
80002036:	ffff                	0xffff
80002038:	ffff                	0xffff
8000203a:	ffff                	0xffff
8000203c:	ffff                	0xffff
8000203e:	ffff                	0xffff
80002040:	ffff                	0xffff
80002042:	ffff                	0xffff
80002044:	ffff                	0xffff
80002046:	ffff                	0xffff
80002048:	ffff                	0xffff
8000204a:	ffff                	0xffff
8000204c:	ffff                	0xffff
8000204e:	ffff                	0xffff
80002050:	ffff                	0xffff
80002052:	ffff                	0xffff
80002054:	ffff                	0xffff
80002056:	ffff                	0xffff
80002058:	ffff                	0xffff
8000205a:	ffff                	0xffff
8000205c:	ffff                	0xffff
8000205e:	ffff                	0xffff
80002060:	ffff                	0xffff
80002062:	ffff                	0xffff
80002064:	ffff                	0xffff
80002066:	ffff                	0xffff
80002068:	ffff                	0xffff
8000206a:	ffff                	0xffff
8000206c:	ffff                	0xffff
8000206e:	ffff                	0xffff
80002070:	ffff                	0xffff
80002072:	ffff                	0xffff
80002074:	ffff                	0xffff
80002076:	ffff                	0xffff
80002078:	ffff                	0xffff
8000207a:	ffff                	0xffff

8000207c <test_A2_res>:
8000207c:	ffff                	0xffff
8000207e:	ffff                	0xffff
