
/home/lenovo/riscv-compliance/work//I-RF_width-01.elf:     file format elf32-littleriscv


Disassembly of section .text.init:

80000000 <_start>:
80000000:	04c0006f          	j	8000004c <reset_vector>

80000004 <trap_vector>:
80000004:	34202f73          	csrr	t5,mcause
80000008:	00800f93          	li	t6,8
8000000c:	03ff0a63          	beq	t5,t6,80000040 <write_tohost>
80000010:	00900f93          	li	t6,9
80000014:	03ff0663          	beq	t5,t6,80000040 <write_tohost>
80000018:	00b00f93          	li	t6,11
8000001c:	03ff0263          	beq	t5,t6,80000040 <write_tohost>
80000020:	80000f17          	auipc	t5,0x80000
80000024:	fe0f0f13          	addi	t5,t5,-32 # 0 <_start-0x80000000>
80000028:	000f0463          	beqz	t5,80000030 <trap_vector+0x2c>
8000002c:	000f0067          	jr	t5
80000030:	34202f73          	csrr	t5,mcause
80000034:	000f5463          	bgez	t5,8000003c <handle_exception>
80000038:	0040006f          	j	8000003c <handle_exception>

8000003c <handle_exception>:
8000003c:	5391e193          	ori	gp,gp,1337

80000040 <write_tohost>:
80000040:	00001f17          	auipc	t5,0x1
80000044:	fc3f2023          	sw	gp,-64(t5) # 80001000 <tohost>
80000048:	ff9ff06f          	j	80000040 <write_tohost>

8000004c <reset_vector>:
8000004c:	f1402573          	csrr	a0,mhartid
80000050:	00051063          	bnez	a0,80000050 <reset_vector+0x4>
80000054:	00000297          	auipc	t0,0x0
80000058:	01028293          	addi	t0,t0,16 # 80000064 <reset_vector+0x18>
8000005c:	30529073          	csrw	mtvec,t0
80000060:	18005073          	csrwi	satp,0
80000064:	00000297          	auipc	t0,0x0
80000068:	01c28293          	addi	t0,t0,28 # 80000080 <reset_vector+0x34>
8000006c:	30529073          	csrw	mtvec,t0
80000070:	fff00293          	li	t0,-1
80000074:	3b029073          	csrw	pmpaddr0,t0
80000078:	01f00293          	li	t0,31
8000007c:	3a029073          	csrw	pmpcfg0,t0
80000080:	00000297          	auipc	t0,0x0
80000084:	01828293          	addi	t0,t0,24 # 80000098 <reset_vector+0x4c>
80000088:	30529073          	csrw	mtvec,t0
8000008c:	30205073          	csrwi	medeleg,0
80000090:	30305073          	csrwi	mideleg,0
80000094:	30405073          	csrwi	mie,0
80000098:	00000193          	li	gp,0
8000009c:	00000297          	auipc	t0,0x0
800000a0:	f6828293          	addi	t0,t0,-152 # 80000004 <trap_vector>
800000a4:	30529073          	csrw	mtvec,t0
800000a8:	00100513          	li	a0,1
800000ac:	01f51513          	slli	a0,a0,0x1f
800000b0:	00054863          	bltz	a0,800000c0 <reset_vector+0x74>
800000b4:	0ff0000f          	fence
800000b8:	00100193          	li	gp,1
800000bc:	00000073          	ecall
800000c0:	80000297          	auipc	t0,0x80000
800000c4:	f4028293          	addi	t0,t0,-192 # 0 <_start-0x80000000>
800000c8:	00028e63          	beqz	t0,800000e4 <reset_vector+0x98>
800000cc:	10529073          	csrw	stvec,t0
800000d0:	0000b2b7          	lui	t0,0xb
800000d4:	10928293          	addi	t0,t0,265 # b109 <_start-0x7fff4ef7>
800000d8:	30229073          	csrw	medeleg,t0
800000dc:	30202373          	csrr	t1,medeleg
800000e0:	f4629ee3          	bne	t0,t1,8000003c <handle_exception>
800000e4:	30005073          	csrwi	mstatus,0
800000e8:	00002537          	lui	a0,0x2
800000ec:	80050513          	addi	a0,a0,-2048 # 1800 <_start-0x7fffe800>
800000f0:	30052073          	csrs	mstatus,a0
800000f4:	00000297          	auipc	t0,0x0
800000f8:	01428293          	addi	t0,t0,20 # 80000108 <begin_testcode>
800000fc:	34129073          	csrw	mepc,t0
80000100:	f1402573          	csrr	a0,mhartid
80000104:	30200073          	mret

80000108 <begin_testcode>:
80000108:	00002817          	auipc	a6,0x2
8000010c:	ef880813          	addi	a6,a6,-264 # 80002000 <begin_signature>
80000110:	00100013          	li	zero,1
80000114:	00100093          	li	ra,1
80000118:	00100113          	li	sp,1
8000011c:	00100193          	li	gp,1
80000120:	00100213          	li	tp,1
80000124:	00100293          	li	t0,1
80000128:	00100313          	li	t1,1
8000012c:	00100393          	li	t2,1
80000130:	00100413          	li	s0,1
80000134:	00100493          	li	s1,1
80000138:	00100513          	li	a0,1
8000013c:	00100593          	li	a1,1
80000140:	00100613          	li	a2,1
80000144:	00100693          	li	a3,1
80000148:	00100713          	li	a4,1
8000014c:	00100793          	li	a5,1
80000150:	01f09093          	slli	ra,ra,0x1f
80000154:	0000c463          	bltz	ra,8000015c <begin_testcode+0x54>
80000158:	00000093          	li	ra,0
8000015c:	01f11113          	slli	sp,sp,0x1f
80000160:	00014463          	bltz	sp,80000168 <begin_testcode+0x60>
80000164:	00000113          	li	sp,0
80000168:	01f19193          	slli	gp,gp,0x1f
8000016c:	0001c463          	bltz	gp,80000174 <begin_testcode+0x6c>
80000170:	00000193          	li	gp,0
80000174:	01f21213          	slli	tp,tp,0x1f
80000178:	00024463          	bltz	tp,80000180 <begin_testcode+0x78>
8000017c:	00000213          	li	tp,0
80000180:	01f29293          	slli	t0,t0,0x1f
80000184:	0002c463          	bltz	t0,8000018c <begin_testcode+0x84>
80000188:	00000293          	li	t0,0
8000018c:	01f31313          	slli	t1,t1,0x1f
80000190:	00034463          	bltz	t1,80000198 <begin_testcode+0x90>
80000194:	00000313          	li	t1,0
80000198:	01f39393          	slli	t2,t2,0x1f
8000019c:	0003c463          	bltz	t2,800001a4 <begin_testcode+0x9c>
800001a0:	00000393          	li	t2,0
800001a4:	01f41413          	slli	s0,s0,0x1f
800001a8:	00044463          	bltz	s0,800001b0 <begin_testcode+0xa8>
800001ac:	00000413          	li	s0,0
800001b0:	01f49493          	slli	s1,s1,0x1f
800001b4:	0004c463          	bltz	s1,800001bc <begin_testcode+0xb4>
800001b8:	00000493          	li	s1,0
800001bc:	01f51513          	slli	a0,a0,0x1f
800001c0:	00054463          	bltz	a0,800001c8 <begin_testcode+0xc0>
800001c4:	00000513          	li	a0,0
800001c8:	01f59593          	slli	a1,a1,0x1f
800001cc:	0005c463          	bltz	a1,800001d4 <begin_testcode+0xcc>
800001d0:	00000593          	li	a1,0
800001d4:	01f61613          	slli	a2,a2,0x1f
800001d8:	00064463          	bltz	a2,800001e0 <begin_testcode+0xd8>
800001dc:	00000613          	li	a2,0
800001e0:	01f69693          	slli	a3,a3,0x1f
800001e4:	0006c463          	bltz	a3,800001ec <begin_testcode+0xe4>
800001e8:	00000693          	li	a3,0
800001ec:	01f71713          	slli	a4,a4,0x1f
800001f0:	00074463          	bltz	a4,800001f8 <begin_testcode+0xf0>
800001f4:	00000713          	li	a4,0
800001f8:	01f79793          	slli	a5,a5,0x1f
800001fc:	0007c463          	bltz	a5,80000204 <begin_testcode+0xfc>
80000200:	00000793          	li	a5,0
80000204:	00082023          	sw	zero,0(a6)
80000208:	00182223          	sw	ra,4(a6)
8000020c:	00282423          	sw	sp,8(a6)
80000210:	00382623          	sw	gp,12(a6)
80000214:	00482823          	sw	tp,16(a6)
80000218:	00582a23          	sw	t0,20(a6)
8000021c:	00682c23          	sw	t1,24(a6)
80000220:	00782e23          	sw	t2,28(a6)
80000224:	02882023          	sw	s0,32(a6)
80000228:	02982223          	sw	s1,36(a6)
8000022c:	02a82423          	sw	a0,40(a6)
80000230:	02b82623          	sw	a1,44(a6)
80000234:	02c82823          	sw	a2,48(a6)
80000238:	02d82a23          	sw	a3,52(a6)
8000023c:	02e82c23          	sw	a4,56(a6)
80000240:	02f82e23          	sw	a5,60(a6)
80000244:	00002097          	auipc	ra,0x2
80000248:	dfc08093          	addi	ra,ra,-516 # 80002040 <test_A2_res>
8000024c:	00100813          	li	a6,1
80000250:	00100893          	li	a7,1
80000254:	00100913          	li	s2,1
80000258:	00100993          	li	s3,1
8000025c:	00100a13          	li	s4,1
80000260:	00100a93          	li	s5,1
80000264:	00100b13          	li	s6,1
80000268:	00100b93          	li	s7,1
8000026c:	00100c13          	li	s8,1
80000270:	00100c93          	li	s9,1
80000274:	00100d13          	li	s10,1
80000278:	00100d93          	li	s11,1
8000027c:	00100e13          	li	t3,1
80000280:	00100e93          	li	t4,1
80000284:	00100f13          	li	t5,1
80000288:	00100f93          	li	t6,1
8000028c:	01f81813          	slli	a6,a6,0x1f
80000290:	00084463          	bltz	a6,80000298 <begin_testcode+0x190>
80000294:	00000813          	li	a6,0
80000298:	01f89893          	slli	a7,a7,0x1f
8000029c:	0008c463          	bltz	a7,800002a4 <begin_testcode+0x19c>
800002a0:	00000893          	li	a7,0
800002a4:	01f91913          	slli	s2,s2,0x1f
800002a8:	00094463          	bltz	s2,800002b0 <begin_testcode+0x1a8>
800002ac:	00000913          	li	s2,0
800002b0:	01f99993          	slli	s3,s3,0x1f
800002b4:	0009c463          	bltz	s3,800002bc <begin_testcode+0x1b4>
800002b8:	00000993          	li	s3,0
800002bc:	01fa1a13          	slli	s4,s4,0x1f
800002c0:	000a4463          	bltz	s4,800002c8 <begin_testcode+0x1c0>
800002c4:	00000a13          	li	s4,0
800002c8:	01fa9a93          	slli	s5,s5,0x1f
800002cc:	000ac463          	bltz	s5,800002d4 <begin_testcode+0x1cc>
800002d0:	00000a93          	li	s5,0
800002d4:	01fb1b13          	slli	s6,s6,0x1f
800002d8:	000b4463          	bltz	s6,800002e0 <begin_testcode+0x1d8>
800002dc:	00000b13          	li	s6,0
800002e0:	01fb9b93          	slli	s7,s7,0x1f
800002e4:	000bc463          	bltz	s7,800002ec <begin_testcode+0x1e4>
800002e8:	00000b93          	li	s7,0
800002ec:	01fc1c13          	slli	s8,s8,0x1f
800002f0:	000c4463          	bltz	s8,800002f8 <begin_testcode+0x1f0>
800002f4:	00000c13          	li	s8,0
800002f8:	01fc9c93          	slli	s9,s9,0x1f
800002fc:	000cc463          	bltz	s9,80000304 <begin_testcode+0x1fc>
80000300:	00000c93          	li	s9,0
80000304:	01fd1d13          	slli	s10,s10,0x1f
80000308:	000d4463          	bltz	s10,80000310 <begin_testcode+0x208>
8000030c:	00000d13          	li	s10,0
80000310:	01fd9d93          	slli	s11,s11,0x1f
80000314:	000dc463          	bltz	s11,8000031c <begin_testcode+0x214>
80000318:	00000d93          	li	s11,0
8000031c:	01fe1e13          	slli	t3,t3,0x1f
80000320:	000e4463          	bltz	t3,80000328 <begin_testcode+0x220>
80000324:	00000e13          	li	t3,0
80000328:	01fe9e93          	slli	t4,t4,0x1f
8000032c:	000ec463          	bltz	t4,80000334 <begin_testcode+0x22c>
80000330:	00000e93          	li	t4,0
80000334:	01ff1f13          	slli	t5,t5,0x1f
80000338:	000f4463          	bltz	t5,80000340 <begin_testcode+0x238>
8000033c:	00000f13          	li	t5,0
80000340:	01ff9f93          	slli	t6,t6,0x1f
80000344:	000fc463          	bltz	t6,8000034c <begin_testcode+0x244>
80000348:	00000f93          	li	t6,0
8000034c:	0100a023          	sw	a6,0(ra)
80000350:	0110a223          	sw	a7,4(ra)
80000354:	0120a423          	sw	s2,8(ra)
80000358:	0130a623          	sw	s3,12(ra)
8000035c:	0140a823          	sw	s4,16(ra)
80000360:	0150aa23          	sw	s5,20(ra)
80000364:	0160ac23          	sw	s6,24(ra)
80000368:	0170ae23          	sw	s7,28(ra)
8000036c:	0380a023          	sw	s8,32(ra)
80000370:	0390a223          	sw	s9,36(ra)
80000374:	03a0a423          	sw	s10,40(ra)
80000378:	03b0a623          	sw	s11,44(ra)
8000037c:	03c0a823          	sw	t3,48(ra)
80000380:	03d0aa23          	sw	t4,52(ra)
80000384:	03e0ac23          	sw	t5,56(ra)
80000388:	03f0ae23          	sw	t6,60(ra)
8000038c:	0ff0000f          	fence
80000390:	00100193          	li	gp,1
80000394:	00000073          	ecall

80000398 <end_testcode>:
80000398:	c0001073          	unimp
	...

Disassembly of section .tohost:

80001000 <tohost>:
	...

80001100 <fromhost>:
	...

Disassembly of section .data:

80002000 <begin_signature>:
80002000:	ffff                	0xffff
80002002:	ffff                	0xffff
80002004:	ffff                	0xffff
80002006:	ffff                	0xffff
80002008:	ffff                	0xffff
8000200a:	ffff                	0xffff
8000200c:	ffff                	0xffff
8000200e:	ffff                	0xffff
80002010:	ffff                	0xffff
80002012:	ffff                	0xffff
80002014:	ffff                	0xffff
80002016:	ffff                	0xffff
80002018:	ffff                	0xffff
8000201a:	ffff                	0xffff
8000201c:	ffff                	0xffff
8000201e:	ffff                	0xffff
80002020:	ffff                	0xffff
80002022:	ffff                	0xffff
80002024:	ffff                	0xffff
80002026:	ffff                	0xffff
80002028:	ffff                	0xffff
8000202a:	ffff                	0xffff
8000202c:	ffff                	0xffff
8000202e:	ffff                	0xffff
80002030:	ffff                	0xffff
80002032:	ffff                	0xffff
80002034:	ffff                	0xffff
80002036:	ffff                	0xffff
80002038:	ffff                	0xffff
8000203a:	ffff                	0xffff
8000203c:	ffff                	0xffff
8000203e:	ffff                	0xffff

80002040 <test_A2_res>:
80002040:	ffff                	0xffff
80002042:	ffff                	0xffff
80002044:	ffff                	0xffff
80002046:	ffff                	0xffff
80002048:	ffff                	0xffff
8000204a:	ffff                	0xffff
8000204c:	ffff                	0xffff
8000204e:	ffff                	0xffff
80002050:	ffff                	0xffff
80002052:	ffff                	0xffff
80002054:	ffff                	0xffff
80002056:	ffff                	0xffff
80002058:	ffff                	0xffff
8000205a:	ffff                	0xffff
8000205c:	ffff                	0xffff
8000205e:	ffff                	0xffff
80002060:	ffff                	0xffff
80002062:	ffff                	0xffff
80002064:	ffff                	0xffff
80002066:	ffff                	0xffff
80002068:	ffff                	0xffff
8000206a:	ffff                	0xffff
8000206c:	ffff                	0xffff
8000206e:	ffff                	0xffff
80002070:	ffff                	0xffff
80002072:	ffff                	0xffff
80002074:	ffff                	0xffff
80002076:	ffff                	0xffff
80002078:	ffff                	0xffff
8000207a:	ffff                	0xffff
8000207c:	ffff                	0xffff
8000207e:	ffff                	0xffff
