
/home/lenovo/riscv-compliance/work//I-RF_size-01.elf:     file format elf32-littleriscv


Disassembly of section .text.init:

80000000 <_start>:
80000000:	04c0006f          	j	8000004c <reset_vector>

80000004 <trap_vector>:
80000004:	34202f73          	csrr	t5,mcause
80000008:	00800f93          	li	t6,8
8000000c:	03ff0a63          	beq	t5,t6,80000040 <write_tohost>
80000010:	00900f93          	li	t6,9
80000014:	03ff0663          	beq	t5,t6,80000040 <write_tohost>
80000018:	00b00f93          	li	t6,11
8000001c:	03ff0263          	beq	t5,t6,80000040 <write_tohost>
80000020:	80000f17          	auipc	t5,0x80000
80000024:	fe0f0f13          	addi	t5,t5,-32 # 0 <_start-0x80000000>
80000028:	000f0463          	beqz	t5,80000030 <trap_vector+0x2c>
8000002c:	000f0067          	jr	t5
80000030:	34202f73          	csrr	t5,mcause
80000034:	000f5463          	bgez	t5,8000003c <handle_exception>
80000038:	0040006f          	j	8000003c <handle_exception>

8000003c <handle_exception>:
8000003c:	5391e193          	ori	gp,gp,1337

80000040 <write_tohost>:
80000040:	00001f17          	auipc	t5,0x1
80000044:	fc3f2023          	sw	gp,-64(t5) # 80001000 <tohost>
80000048:	ff9ff06f          	j	80000040 <write_tohost>

8000004c <reset_vector>:
8000004c:	f1402573          	csrr	a0,mhartid
80000050:	00051063          	bnez	a0,80000050 <reset_vector+0x4>
80000054:	00000297          	auipc	t0,0x0
80000058:	01028293          	addi	t0,t0,16 # 80000064 <reset_vector+0x18>
8000005c:	30529073          	csrw	mtvec,t0
80000060:	18005073          	csrwi	satp,0
80000064:	00000297          	auipc	t0,0x0
80000068:	01c28293          	addi	t0,t0,28 # 80000080 <reset_vector+0x34>
8000006c:	30529073          	csrw	mtvec,t0
80000070:	fff00293          	li	t0,-1
80000074:	3b029073          	csrw	pmpaddr0,t0
80000078:	01f00293          	li	t0,31
8000007c:	3a029073          	csrw	pmpcfg0,t0
80000080:	00000297          	auipc	t0,0x0
80000084:	01828293          	addi	t0,t0,24 # 80000098 <reset_vector+0x4c>
80000088:	30529073          	csrw	mtvec,t0
8000008c:	30205073          	csrwi	medeleg,0
80000090:	30305073          	csrwi	mideleg,0
80000094:	30405073          	csrwi	mie,0
80000098:	00000193          	li	gp,0
8000009c:	00000297          	auipc	t0,0x0
800000a0:	f6828293          	addi	t0,t0,-152 # 80000004 <trap_vector>
800000a4:	30529073          	csrw	mtvec,t0
800000a8:	00100513          	li	a0,1
800000ac:	01f51513          	slli	a0,a0,0x1f
800000b0:	00054863          	bltz	a0,800000c0 <reset_vector+0x74>
800000b4:	0ff0000f          	fence
800000b8:	00100193          	li	gp,1
800000bc:	00000073          	ecall
800000c0:	80000297          	auipc	t0,0x80000
800000c4:	f4028293          	addi	t0,t0,-192 # 0 <_start-0x80000000>
800000c8:	00028e63          	beqz	t0,800000e4 <reset_vector+0x98>
800000cc:	10529073          	csrw	stvec,t0
800000d0:	0000b2b7          	lui	t0,0xb
800000d4:	10928293          	addi	t0,t0,265 # b109 <_start-0x7fff4ef7>
800000d8:	30229073          	csrw	medeleg,t0
800000dc:	30202373          	csrr	t1,medeleg
800000e0:	f4629ee3          	bne	t0,t1,8000003c <handle_exception>
800000e4:	30005073          	csrwi	mstatus,0
800000e8:	00002537          	lui	a0,0x2
800000ec:	80050513          	addi	a0,a0,-2048 # 1800 <_start-0x7fffe800>
800000f0:	30052073          	csrs	mstatus,a0
800000f4:	00000297          	auipc	t0,0x0
800000f8:	01428293          	addi	t0,t0,20 # 80000108 <begin_testcode>
800000fc:	34129073          	csrw	mepc,t0
80000100:	f1402573          	csrr	a0,mhartid
80000104:	30200073          	mret

80000108 <begin_testcode>:
80000108:	00002817          	auipc	a6,0x2
8000010c:	ef880813          	addi	a6,a6,-264 # 80002000 <begin_signature>
80000110:	42727037          	lui	zero,0x42727
80000114:	e6f00013          	li	zero,-401
80000118:	563330b7          	lui	ra,0x56333
8000011c:	24908093          	addi	ra,ra,585 # 56333249 <_start-0x29cccdb7>
80000120:	2d562137          	lui	sp,0x2d562
80000124:	05210113          	addi	sp,sp,82 # 2d562052 <_start-0x52a9dfae>
80000128:	526971b7          	lui	gp,0x52697
8000012c:	36318193          	addi	gp,gp,867 # 52697363 <_start-0x2d968c9d>
80000130:	736b8237          	lui	tp,0x736b8
80000134:	92020213          	addi	tp,tp,-1760 # 736b7920 <_start-0xc9486e0>
80000138:	737462b7          	lui	t0,0x73746
8000013c:	57228293          	addi	t0,t0,1394 # 73746572 <_start-0xc8b9a8e>
80000140:	6e205337          	lui	t1,0x6e205
80000144:	e6f30313          	addi	t1,t1,-401 # 6e204e6f <_start-0x11dfb191>
80000148:	4d6973b7          	lui	t2,0x4d697
8000014c:	c6138393          	addi	t2,t2,-927 # 4d696c61 <_start-0x3296939f>
80000150:	6f646437          	lui	s0,0x6f646
80000154:	17340413          	addi	s0,s0,371 # 6f646173 <_start-0x109b9e8d>
80000158:	6b7944b7          	lui	s1,0x6b794
8000015c:	06348493          	addi	s1,s1,99 # 6b794063 <_start-0x1486bf9d>
80000160:	74657537          	lui	a0,0x74657
80000164:	27350513          	addi	a0,a0,627 # 74657273 <_start-0xb9a8d8d>
80000168:	286e75b7          	lui	a1,0x286e7
8000016c:	f7358593          	addi	a1,a1,-141 # 286e6f73 <_start-0x5791908d>
80000170:	656b2637          	lui	a2,0x656b2
80000174:	04860613          	addi	a2,a2,72 # 656b2048 <_start-0x1a94dfb8>
80000178:	205266b7          	lui	a3,0x20526
8000017c:	16468693          	addi	a3,a3,356 # 20526164 <_start-0x5fad9e9c>
80000180:	6f6d3737          	lui	a4,0x6f6d3
80000184:	92c70713          	addi	a4,a4,-1748 # 6f6d292c <_start-0x1092d6d4>
80000188:	697037b7          	lui	a5,0x69703
8000018c:	e6378793          	addi	a5,a5,-413 # 69702e63 <_start-0x168fd19d>
80000190:	00082023          	sw	zero,0(a6)
80000194:	00182223          	sw	ra,4(a6)
80000198:	00282423          	sw	sp,8(a6)
8000019c:	00382623          	sw	gp,12(a6)
800001a0:	00482823          	sw	tp,16(a6)
800001a4:	00582a23          	sw	t0,20(a6)
800001a8:	00682c23          	sw	t1,24(a6)
800001ac:	00782e23          	sw	t2,28(a6)
800001b0:	02882023          	sw	s0,32(a6)
800001b4:	02982223          	sw	s1,36(a6)
800001b8:	02a82423          	sw	a0,40(a6)
800001bc:	02b82623          	sw	a1,44(a6)
800001c0:	02c82823          	sw	a2,48(a6)
800001c4:	02d82a23          	sw	a3,52(a6)
800001c8:	02e82c23          	sw	a4,56(a6)
800001cc:	02f82e23          	sw	a5,60(a6)
800001d0:	00002217          	auipc	tp,0x2
800001d4:	e7020213          	addi	tp,tp,-400 # 80002040 <test_A2_res>
800001d8:	636f6837          	lui	a6,0x636f6
800001dc:	46180813          	addi	a6,a6,1121 # 636f6461 <_start-0x1c909b9f>
800001e0:	6a6578b7          	lui	a7,0x6a657
800001e4:	b4088893          	addi	a7,a7,-1216 # 6a656b40 <_start-0x159a94c0>
800001e8:	20287937          	lui	s2,0x20287
800001ec:	86190913          	addi	s2,s2,-1951 # 20286861 <_start-0x5fd7979f>
800001f0:	616a69b7          	lui	s3,0x616a6
800001f4:	56b98993          	addi	s3,s3,1387 # 616a656b <_start-0x1e959a95>
800001f8:	61766a37          	lui	s4,0x61766
800001fc:	520a0a13          	addi	s4,s4,1312 # 61766520 <_start-0x1e899ae0>
80000200:	2e205ab7          	lui	s5,0x2e205
80000204:	c65a8a93          	addi	s5,s5,-923 # 2e204c65 <_start-0x51dfb39b>
80000208:	636f7b37          	lui	s6,0x636f7
8000020c:	d29b0b13          	addi	s6,s6,-727 # 636f6d29 <_start-0x1c9092d7>
80000210:	73697bb7          	lui	s7,0x73697
80000214:	02eb8b93          	addi	s7,s7,46 # 7369702e <_start-0xc968fd2>
80000218:	66208c37          	lui	s8,0x66208
8000021c:	96fc0c13          	addi	s8,s8,-1681 # 6620796f <_start-0x19df8691>
80000220:	67652cb7          	lui	s9,0x67652
80000224:	069c8c93          	addi	s9,s9,105 # 67652069 <_start-0x189adf97>
80000228:	65737d37          	lui	s10,0x65737
8000022c:	361d0d13          	addi	s10,s10,865 # 65737361 <_start-0x1a8c8c9f>
80000230:	75732db7          	lui	s11,0x75732
80000234:	06dd8d93          	addi	s11,s11,109 # 7573206d <_start-0xa8cdf93>
80000238:	3a291e37          	lui	t3,0x3a291
8000023c:	d0ae0e13          	addi	t3,t3,-758 # 3a290d0a <_start-0x45d6f2f6>
80000240:	68697eb7          	lui	t4,0x68697
80000244:	320e8e93          	addi	t4,t4,800 # 68697320 <_start-0x17968ce0>
80000248:	61642f37          	lui	t5,0x61642
8000024c:	074f0f13          	addi	t5,t5,116 # 61642074 <_start-0x1e9bdf8c>
80000250:	75207fb7          	lui	t6,0x75207
80000254:	265f8f93          	addi	t6,t6,613 # 75207265 <_start-0xadf8d9b>
80000258:	01022023          	sw	a6,0(tp) # 0 <_start-0x80000000>
8000025c:	01122223          	sw	a7,4(tp) # 4 <_start-0x7ffffffc>
80000260:	01222423          	sw	s2,8(tp) # 8 <_start-0x7ffffff8>
80000264:	01322623          	sw	s3,12(tp) # c <_start-0x7ffffff4>
80000268:	01422823          	sw	s4,16(tp) # 10 <_start-0x7ffffff0>
8000026c:	01522a23          	sw	s5,20(tp) # 14 <_start-0x7fffffec>
80000270:	01622c23          	sw	s6,24(tp) # 18 <_start-0x7fffffe8>
80000274:	01722e23          	sw	s7,28(tp) # 1c <_start-0x7fffffe4>
80000278:	03822023          	sw	s8,32(tp) # 20 <_start-0x7fffffe0>
8000027c:	03922223          	sw	s9,36(tp) # 24 <_start-0x7fffffdc>
80000280:	03a22423          	sw	s10,40(tp) # 28 <_start-0x7fffffd8>
80000284:	03b22623          	sw	s11,44(tp) # 2c <_start-0x7fffffd4>
80000288:	03c22823          	sw	t3,48(tp) # 30 <_start-0x7fffffd0>
8000028c:	03d22a23          	sw	t4,52(tp) # 34 <_start-0x7fffffcc>
80000290:	03e22c23          	sw	t5,56(tp) # 38 <_start-0x7fffffc8>
80000294:	03f22e23          	sw	t6,60(tp) # 3c <_start-0x7fffffc4>
80000298:	00002217          	auipc	tp,0x2
8000029c:	de820213          	addi	tp,tp,-536 # 80002080 <test_A3_res>
800002a0:	00022023          	sw	zero,0(tp) # 0 <_start-0x80000000>
800002a4:	00122223          	sw	ra,4(tp) # 4 <_start-0x7ffffffc>
800002a8:	00222423          	sw	sp,8(tp) # 8 <_start-0x7ffffff8>
800002ac:	00322623          	sw	gp,12(tp) # c <_start-0x7ffffff4>
800002b0:	0ff0000f          	fence
800002b4:	00100193          	li	gp,1
800002b8:	00000073          	ecall

800002bc <end_testcode>:
800002bc:	c0001073          	unimp
800002c0:	0000                	unimp
	...

Disassembly of section .tohost:

80001000 <tohost>:
	...

80001100 <fromhost>:
	...

Disassembly of section .data:

80002000 <begin_signature>:
80002000:	ffff                	0xffff
80002002:	ffff                	0xffff
80002004:	ffff                	0xffff
80002006:	ffff                	0xffff
80002008:	ffff                	0xffff
8000200a:	ffff                	0xffff
8000200c:	ffff                	0xffff
8000200e:	ffff                	0xffff
80002010:	ffff                	0xffff
80002012:	ffff                	0xffff
80002014:	ffff                	0xffff
80002016:	ffff                	0xffff
80002018:	ffff                	0xffff
8000201a:	ffff                	0xffff
8000201c:	ffff                	0xffff
8000201e:	ffff                	0xffff
80002020:	ffff                	0xffff
80002022:	ffff                	0xffff
80002024:	ffff                	0xffff
80002026:	ffff                	0xffff
80002028:	ffff                	0xffff
8000202a:	ffff                	0xffff
8000202c:	ffff                	0xffff
8000202e:	ffff                	0xffff
80002030:	ffff                	0xffff
80002032:	ffff                	0xffff
80002034:	ffff                	0xffff
80002036:	ffff                	0xffff
80002038:	ffff                	0xffff
8000203a:	ffff                	0xffff
8000203c:	ffff                	0xffff
8000203e:	ffff                	0xffff

80002040 <test_A2_res>:
80002040:	ffff                	0xffff
80002042:	ffff                	0xffff
80002044:	ffff                	0xffff
80002046:	ffff                	0xffff
80002048:	ffff                	0xffff
8000204a:	ffff                	0xffff
8000204c:	ffff                	0xffff
8000204e:	ffff                	0xffff
80002050:	ffff                	0xffff
80002052:	ffff                	0xffff
80002054:	ffff                	0xffff
80002056:	ffff                	0xffff
80002058:	ffff                	0xffff
8000205a:	ffff                	0xffff
8000205c:	ffff                	0xffff
8000205e:	ffff                	0xffff
80002060:	ffff                	0xffff
80002062:	ffff                	0xffff
80002064:	ffff                	0xffff
80002066:	ffff                	0xffff
80002068:	ffff                	0xffff
8000206a:	ffff                	0xffff
8000206c:	ffff                	0xffff
8000206e:	ffff                	0xffff
80002070:	ffff                	0xffff
80002072:	ffff                	0xffff
80002074:	ffff                	0xffff
80002076:	ffff                	0xffff
80002078:	ffff                	0xffff
8000207a:	ffff                	0xffff
8000207c:	ffff                	0xffff
8000207e:	ffff                	0xffff

80002080 <test_A3_res>:
80002080:	ffff                	0xffff
80002082:	ffff                	0xffff
80002084:	ffff                	0xffff
80002086:	ffff                	0xffff
80002088:	ffff                	0xffff
8000208a:	ffff                	0xffff
8000208c:	ffff                	0xffff
8000208e:	ffff                	0xffff
