
/home/lenovo/riscv-compliance/work//I-SLTI-01.elf:     file format elf32-littleriscv


Disassembly of section .text.init:

80000000 <_start>:
80000000:	04c0006f          	j	8000004c <reset_vector>

80000004 <trap_vector>:
80000004:	34202f73          	csrr	t5,mcause
80000008:	00800f93          	li	t6,8
8000000c:	03ff0a63          	beq	t5,t6,80000040 <write_tohost>
80000010:	00900f93          	li	t6,9
80000014:	03ff0663          	beq	t5,t6,80000040 <write_tohost>
80000018:	00b00f93          	li	t6,11
8000001c:	03ff0263          	beq	t5,t6,80000040 <write_tohost>
80000020:	80000f17          	auipc	t5,0x80000
80000024:	fe0f0f13          	addi	t5,t5,-32 # 0 <_start-0x80000000>
80000028:	000f0463          	beqz	t5,80000030 <trap_vector+0x2c>
8000002c:	000f0067          	jr	t5
80000030:	34202f73          	csrr	t5,mcause
80000034:	000f5463          	bgez	t5,8000003c <handle_exception>
80000038:	0040006f          	j	8000003c <handle_exception>

8000003c <handle_exception>:
8000003c:	5391e193          	ori	gp,gp,1337

80000040 <write_tohost>:
80000040:	00001f17          	auipc	t5,0x1
80000044:	fc3f2023          	sw	gp,-64(t5) # 80001000 <tohost>
80000048:	ff9ff06f          	j	80000040 <write_tohost>

8000004c <reset_vector>:
8000004c:	f1402573          	csrr	a0,mhartid
80000050:	00051063          	bnez	a0,80000050 <reset_vector+0x4>
80000054:	00000297          	auipc	t0,0x0
80000058:	01028293          	addi	t0,t0,16 # 80000064 <reset_vector+0x18>
8000005c:	30529073          	csrw	mtvec,t0
80000060:	18005073          	csrwi	satp,0
80000064:	00000297          	auipc	t0,0x0
80000068:	01c28293          	addi	t0,t0,28 # 80000080 <reset_vector+0x34>
8000006c:	30529073          	csrw	mtvec,t0
80000070:	fff00293          	li	t0,-1
80000074:	3b029073          	csrw	pmpaddr0,t0
80000078:	01f00293          	li	t0,31
8000007c:	3a029073          	csrw	pmpcfg0,t0
80000080:	00000297          	auipc	t0,0x0
80000084:	01828293          	addi	t0,t0,24 # 80000098 <reset_vector+0x4c>
80000088:	30529073          	csrw	mtvec,t0
8000008c:	30205073          	csrwi	medeleg,0
80000090:	30305073          	csrwi	mideleg,0
80000094:	30405073          	csrwi	mie,0
80000098:	00000193          	li	gp,0
8000009c:	00000297          	auipc	t0,0x0
800000a0:	f6828293          	addi	t0,t0,-152 # 80000004 <trap_vector>
800000a4:	30529073          	csrw	mtvec,t0
800000a8:	00100513          	li	a0,1
800000ac:	01f51513          	slli	a0,a0,0x1f
800000b0:	00054863          	bltz	a0,800000c0 <reset_vector+0x74>
800000b4:	0ff0000f          	fence
800000b8:	00100193          	li	gp,1
800000bc:	00000073          	ecall
800000c0:	80000297          	auipc	t0,0x80000
800000c4:	f4028293          	addi	t0,t0,-192 # 0 <_start-0x80000000>
800000c8:	00028e63          	beqz	t0,800000e4 <reset_vector+0x98>
800000cc:	10529073          	csrw	stvec,t0
800000d0:	0000b2b7          	lui	t0,0xb
800000d4:	10928293          	addi	t0,t0,265 # b109 <_start-0x7fff4ef7>
800000d8:	30229073          	csrw	medeleg,t0
800000dc:	30202373          	csrr	t1,medeleg
800000e0:	f4629ee3          	bne	t0,t1,8000003c <handle_exception>
800000e4:	30005073          	csrwi	mstatus,0
800000e8:	00002537          	lui	a0,0x2
800000ec:	80050513          	addi	a0,a0,-2048 # 1800 <_start-0x7fffe800>
800000f0:	30052073          	csrs	mstatus,a0
800000f4:	00000297          	auipc	t0,0x0
800000f8:	01428293          	addi	t0,t0,20 # 80000108 <begin_testcode>
800000fc:	34129073          	csrw	mepc,t0
80000100:	f1402573          	csrr	a0,mhartid
80000104:	30200073          	mret

80000108 <begin_testcode>:
80000108:	00002097          	auipc	ra,0x2
8000010c:	ef808093          	addi	ra,ra,-264 # 80002000 <test_A1_data>
80000110:	00002117          	auipc	sp,0x2
80000114:	f1010113          	addi	sp,sp,-240 # 80002020 <begin_signature>
80000118:	0000a183          	lw	gp,0(ra)
8000011c:	0011a213          	slti	tp,gp,1
80000120:	7ff1a293          	slti	t0,gp,2047
80000124:	fff1a313          	slti	t1,gp,-1
80000128:	0001a393          	slti	t2,gp,0
8000012c:	8001a413          	slti	s0,gp,-2048
80000130:	00312023          	sw	gp,0(sp)
80000134:	00412223          	sw	tp,4(sp)
80000138:	00512423          	sw	t0,8(sp)
8000013c:	00612623          	sw	t1,12(sp)
80000140:	00712823          	sw	t2,16(sp)
80000144:	00812a23          	sw	s0,20(sp)
80000148:	00002097          	auipc	ra,0x2
8000014c:	ebc08093          	addi	ra,ra,-324 # 80002004 <test_A2_data>
80000150:	00002117          	auipc	sp,0x2
80000154:	ee810113          	addi	sp,sp,-280 # 80002038 <test_A2_res>
80000158:	0000a403          	lw	s0,0(ra)
8000015c:	00142493          	slti	s1,s0,1
80000160:	7ff42513          	slti	a0,s0,2047
80000164:	fff42593          	slti	a1,s0,-1
80000168:	00042613          	slti	a2,s0,0
8000016c:	80042693          	slti	a3,s0,-2048
80000170:	00812023          	sw	s0,0(sp)
80000174:	00912223          	sw	s1,4(sp)
80000178:	00a12423          	sw	a0,8(sp)
8000017c:	00b12623          	sw	a1,12(sp)
80000180:	00c12823          	sw	a2,16(sp)
80000184:	00d12a23          	sw	a3,20(sp)
80000188:	00002097          	auipc	ra,0x2
8000018c:	e8008093          	addi	ra,ra,-384 # 80002008 <test_A3_data>
80000190:	00002117          	auipc	sp,0x2
80000194:	ec010113          	addi	sp,sp,-320 # 80002050 <test_A3_res>
80000198:	0000a683          	lw	a3,0(ra)
8000019c:	0016a713          	slti	a4,a3,1
800001a0:	7ff6a793          	slti	a5,a3,2047
800001a4:	fff6a813          	slti	a6,a3,-1
800001a8:	0006a893          	slti	a7,a3,0
800001ac:	8006a913          	slti	s2,a3,-2048
800001b0:	00d12023          	sw	a3,0(sp)
800001b4:	00e12223          	sw	a4,4(sp)
800001b8:	00f12423          	sw	a5,8(sp)
800001bc:	01012623          	sw	a6,12(sp)
800001c0:	01112823          	sw	a7,16(sp)
800001c4:	01212a23          	sw	s2,20(sp)
800001c8:	00002097          	auipc	ra,0x2
800001cc:	e4408093          	addi	ra,ra,-444 # 8000200c <test_A4_data>
800001d0:	00002117          	auipc	sp,0x2
800001d4:	e9810113          	addi	sp,sp,-360 # 80002068 <test_A4_res>
800001d8:	0000a903          	lw	s2,0(ra)
800001dc:	00192993          	slti	s3,s2,1
800001e0:	7ff92a13          	slti	s4,s2,2047
800001e4:	fff92a93          	slti	s5,s2,-1
800001e8:	00092b13          	slti	s6,s2,0
800001ec:	80092b93          	slti	s7,s2,-2048
800001f0:	01212023          	sw	s2,0(sp)
800001f4:	01312223          	sw	s3,4(sp)
800001f8:	01412423          	sw	s4,8(sp)
800001fc:	01512623          	sw	s5,12(sp)
80000200:	01612823          	sw	s6,16(sp)
80000204:	01712a23          	sw	s7,20(sp)
80000208:	00002097          	auipc	ra,0x2
8000020c:	e0808093          	addi	ra,ra,-504 # 80002010 <test_A5_data>
80000210:	00002117          	auipc	sp,0x2
80000214:	e7010113          	addi	sp,sp,-400 # 80002080 <test_A5_res>
80000218:	0000ab83          	lw	s7,0(ra)
8000021c:	001bac13          	slti	s8,s7,1
80000220:	7ffbac93          	slti	s9,s7,2047
80000224:	fffbad13          	slti	s10,s7,-1
80000228:	000bad93          	slti	s11,s7,0
8000022c:	800bae13          	slti	t3,s7,-2048
80000230:	01712023          	sw	s7,0(sp)
80000234:	01812223          	sw	s8,4(sp)
80000238:	01912423          	sw	s9,8(sp)
8000023c:	01a12623          	sw	s10,12(sp)
80000240:	01b12823          	sw	s11,16(sp)
80000244:	01c12a23          	sw	t3,20(sp)
80000248:	00002d17          	auipc	s10,0x2
8000024c:	dccd0d13          	addi	s10,s10,-564 # 80002014 <test_B_data>
80000250:	00002d97          	auipc	s11,0x2
80000254:	e48d8d93          	addi	s11,s11,-440 # 80002098 <test_B_res>
80000258:	000d2083          	lw	ra,0(s10)
8000025c:	0010a013          	slti	zero,ra,1
80000260:	001da023          	sw	ra,0(s11)
80000264:	000da223          	sw	zero,4(s11)
80000268:	00002f97          	auipc	t6,0x2
8000026c:	e38f8f93          	addi	t6,t6,-456 # 800020a0 <test_C_res>
80000270:	00102093          	slti	ra,zero,1
80000274:	7ff02113          	slti	sp,zero,2047
80000278:	fff02193          	slti	gp,zero,-1
8000027c:	00002213          	slti	tp,zero,0
80000280:	80002293          	slti	t0,zero,-2048
80000284:	000fa023          	sw	zero,0(t6)
80000288:	001fa223          	sw	ra,4(t6)
8000028c:	002fa423          	sw	sp,8(t6)
80000290:	003fa623          	sw	gp,12(t6)
80000294:	004fa823          	sw	tp,16(t6)
80000298:	005faa23          	sw	t0,20(t6)
8000029c:	00002f97          	auipc	t6,0x2
800002a0:	e1cf8f93          	addi	t6,t6,-484 # 800020b8 <test_D_res>
800002a4:	00102093          	slti	ra,zero,1
800002a8:	0010a113          	slti	sp,ra,1
800002ac:	00112e13          	slti	t3,sp,1
800002b0:	001e2e93          	slti	t4,t3,1
800002b4:	001eaf13          	slti	t5,t4,1
800002b8:	000fa023          	sw	zero,0(t6)
800002bc:	001fa223          	sw	ra,4(t6)
800002c0:	002fa423          	sw	sp,8(t6)
800002c4:	01cfa623          	sw	t3,12(t6)
800002c8:	01dfa823          	sw	t4,16(t6)
800002cc:	01efaa23          	sw	t5,20(t6)
800002d0:	0ff0000f          	fence
800002d4:	00100193          	li	gp,1
800002d8:	00000073          	ecall

800002dc <end_testcode>:
800002dc:	c0001073          	unimp
	...

Disassembly of section .tohost:

80001000 <tohost>:
	...

80001100 <fromhost>:
	...

Disassembly of section .data:

80002000 <test_A1_data>:
80002000:	0000                	unimp
	...

80002004 <test_A2_data>:
80002004:	0001                	nop
	...

80002008 <test_A3_data>:
80002008:	ffff                	0xffff
8000200a:	ffff                	0xffff

8000200c <test_A4_data>:
8000200c:	ffff                	0xffff
8000200e:	7fff                	0x7fff

80002010 <test_A5_data>:
80002010:	0000                	unimp
80002012:	8000                	0x8000

80002014 <test_B_data>:
80002014:	ffff                	0xffff
80002016:	ffff                	0xffff
	...

80002020 <begin_signature>:
80002020:	ffff                	0xffff
80002022:	ffff                	0xffff
80002024:	ffff                	0xffff
80002026:	ffff                	0xffff
80002028:	ffff                	0xffff
8000202a:	ffff                	0xffff
8000202c:	ffff                	0xffff
8000202e:	ffff                	0xffff
80002030:	ffff                	0xffff
80002032:	ffff                	0xffff
80002034:	ffff                	0xffff
80002036:	ffff                	0xffff

80002038 <test_A2_res>:
80002038:	ffff                	0xffff
8000203a:	ffff                	0xffff
8000203c:	ffff                	0xffff
8000203e:	ffff                	0xffff
80002040:	ffff                	0xffff
80002042:	ffff                	0xffff
80002044:	ffff                	0xffff
80002046:	ffff                	0xffff
80002048:	ffff                	0xffff
8000204a:	ffff                	0xffff
8000204c:	ffff                	0xffff
8000204e:	ffff                	0xffff

80002050 <test_A3_res>:
80002050:	ffff                	0xffff
80002052:	ffff                	0xffff
80002054:	ffff                	0xffff
80002056:	ffff                	0xffff
80002058:	ffff                	0xffff
8000205a:	ffff                	0xffff
8000205c:	ffff                	0xffff
8000205e:	ffff                	0xffff
80002060:	ffff                	0xffff
80002062:	ffff                	0xffff
80002064:	ffff                	0xffff
80002066:	ffff                	0xffff

80002068 <test_A4_res>:
80002068:	ffff                	0xffff
8000206a:	ffff                	0xffff
8000206c:	ffff                	0xffff
8000206e:	ffff                	0xffff
80002070:	ffff                	0xffff
80002072:	ffff                	0xffff
80002074:	ffff                	0xffff
80002076:	ffff                	0xffff
80002078:	ffff                	0xffff
8000207a:	ffff                	0xffff
8000207c:	ffff                	0xffff
8000207e:	ffff                	0xffff

80002080 <test_A5_res>:
80002080:	ffff                	0xffff
80002082:	ffff                	0xffff
80002084:	ffff                	0xffff
80002086:	ffff                	0xffff
80002088:	ffff                	0xffff
8000208a:	ffff                	0xffff
8000208c:	ffff                	0xffff
8000208e:	ffff                	0xffff
80002090:	ffff                	0xffff
80002092:	ffff                	0xffff
80002094:	ffff                	0xffff
80002096:	ffff                	0xffff

80002098 <test_B_res>:
80002098:	ffff                	0xffff
8000209a:	ffff                	0xffff
8000209c:	ffff                	0xffff
8000209e:	ffff                	0xffff

800020a0 <test_C_res>:
800020a0:	ffff                	0xffff
800020a2:	ffff                	0xffff
800020a4:	ffff                	0xffff
800020a6:	ffff                	0xffff
800020a8:	ffff                	0xffff
800020aa:	ffff                	0xffff
800020ac:	ffff                	0xffff
800020ae:	ffff                	0xffff
800020b0:	ffff                	0xffff
800020b2:	ffff                	0xffff
800020b4:	ffff                	0xffff
800020b6:	ffff                	0xffff

800020b8 <test_D_res>:
800020b8:	ffff                	0xffff
800020ba:	ffff                	0xffff
800020bc:	ffff                	0xffff
800020be:	ffff                	0xffff
800020c0:	ffff                	0xffff
800020c2:	ffff                	0xffff
800020c4:	ffff                	0xffff
800020c6:	ffff                	0xffff
800020c8:	ffff                	0xffff
800020ca:	ffff                	0xffff
800020cc:	ffff                	0xffff
800020ce:	ffff                	0xffff
