
/home/lenovo/riscv-compliance/work//REMU.elf:     file format elf32-littleriscv


Disassembly of section .text.init:

80000000 <_start>:
80000000:	04c0006f          	j	8000004c <reset_vector>

80000004 <trap_vector>:
80000004:	34202f73          	csrr	t5,mcause
80000008:	00800f93          	li	t6,8
8000000c:	03ff0a63          	beq	t5,t6,80000040 <write_tohost>
80000010:	00900f93          	li	t6,9
80000014:	03ff0663          	beq	t5,t6,80000040 <write_tohost>
80000018:	00b00f93          	li	t6,11
8000001c:	03ff0263          	beq	t5,t6,80000040 <write_tohost>
80000020:	80000f17          	auipc	t5,0x80000
80000024:	fe0f0f13          	addi	t5,t5,-32 # 0 <_start-0x80000000>
80000028:	000f0463          	beqz	t5,80000030 <trap_vector+0x2c>
8000002c:	000f0067          	jr	t5
80000030:	34202f73          	csrr	t5,mcause
80000034:	000f5463          	bgez	t5,8000003c <handle_exception>
80000038:	0040006f          	j	8000003c <handle_exception>

8000003c <handle_exception>:
8000003c:	5391e193          	ori	gp,gp,1337

80000040 <write_tohost>:
80000040:	00001f17          	auipc	t5,0x1
80000044:	fc3f2023          	sw	gp,-64(t5) # 80001000 <tohost>
80000048:	ff9ff06f          	j	80000040 <write_tohost>

8000004c <reset_vector>:
8000004c:	f1402573          	csrr	a0,mhartid
80000050:	00051063          	bnez	a0,80000050 <reset_vector+0x4>
80000054:	00000297          	auipc	t0,0x0
80000058:	01028293          	addi	t0,t0,16 # 80000064 <reset_vector+0x18>
8000005c:	30529073          	csrw	mtvec,t0
80000060:	18005073          	csrwi	satp,0
80000064:	00000297          	auipc	t0,0x0
80000068:	01c28293          	addi	t0,t0,28 # 80000080 <reset_vector+0x34>
8000006c:	30529073          	csrw	mtvec,t0
80000070:	fff00293          	li	t0,-1
80000074:	3b029073          	csrw	pmpaddr0,t0
80000078:	01f00293          	li	t0,31
8000007c:	3a029073          	csrw	pmpcfg0,t0
80000080:	00000297          	auipc	t0,0x0
80000084:	01828293          	addi	t0,t0,24 # 80000098 <reset_vector+0x4c>
80000088:	30529073          	csrw	mtvec,t0
8000008c:	30205073          	csrwi	medeleg,0
80000090:	30305073          	csrwi	mideleg,0
80000094:	30405073          	csrwi	mie,0
80000098:	00000193          	li	gp,0
8000009c:	00000297          	auipc	t0,0x0
800000a0:	f6828293          	addi	t0,t0,-152 # 80000004 <trap_vector>
800000a4:	30529073          	csrw	mtvec,t0
800000a8:	00100513          	li	a0,1
800000ac:	01f51513          	slli	a0,a0,0x1f
800000b0:	00054863          	bltz	a0,800000c0 <reset_vector+0x74>
800000b4:	0ff0000f          	fence
800000b8:	00100193          	li	gp,1
800000bc:	00000073          	ecall
800000c0:	80000297          	auipc	t0,0x80000
800000c4:	f4028293          	addi	t0,t0,-192 # 0 <_start-0x80000000>
800000c8:	00028e63          	beqz	t0,800000e4 <reset_vector+0x98>
800000cc:	10529073          	csrw	stvec,t0
800000d0:	0000b2b7          	lui	t0,0xb
800000d4:	10928293          	addi	t0,t0,265 # b109 <_start-0x7fff4ef7>
800000d8:	30229073          	csrw	medeleg,t0
800000dc:	30202373          	csrr	t1,medeleg
800000e0:	f4629ee3          	bne	t0,t1,8000003c <handle_exception>
800000e4:	30005073          	csrwi	mstatus,0
800000e8:	00002537          	lui	a0,0x2
800000ec:	80050513          	addi	a0,a0,-2048 # 1800 <_start-0x7fffe800>
800000f0:	30052073          	csrs	mstatus,a0
800000f4:	00000297          	auipc	t0,0x0
800000f8:	01428293          	addi	t0,t0,20 # 80000108 <begin_testcode>
800000fc:	34129073          	csrw	mepc,t0
80000100:	f1402573          	csrr	a0,mhartid
80000104:	30200073          	mret

80000108 <begin_testcode>:
80000108:	00002117          	auipc	sp,0x2
8000010c:	ef810113          	addi	sp,sp,-264 # 80002000 <begin_signature>
80000110:	00000913          	li	s2,0
80000114:	00000893          	li	a7,0
80000118:	031978b3          	remu	a7,s2,a7
8000011c:	01112023          	sw	a7,0(sp)
80000120:	00000a13          	li	s4,0
80000124:	00100993          	li	s3,1
80000128:	033a79b3          	remu	s3,s4,s3
8000012c:	01312223          	sw	s3,4(sp)
80000130:	00000b13          	li	s6,0
80000134:	fff00a93          	li	s5,-1
80000138:	035b7ab3          	remu	s5,s6,s5
8000013c:	01512423          	sw	s5,8(sp)
80000140:	00000c13          	li	s8,0
80000144:	80000bb7          	lui	s7,0x80000
80000148:	fffb8b93          	addi	s7,s7,-1 # 7fffffff <_end+0xffffdf2f>
8000014c:	037c7bb3          	remu	s7,s8,s7
80000150:	01712623          	sw	s7,12(sp)
80000154:	00000d13          	li	s10,0
80000158:	80000cb7          	lui	s9,0x80000
8000015c:	039d7cb3          	remu	s9,s10,s9
80000160:	01912823          	sw	s9,16(sp)
80000164:	00002117          	auipc	sp,0x2
80000168:	eb010113          	addi	sp,sp,-336 # 80002014 <test_2_res>
8000016c:	00100e13          	li	t3,1
80000170:	00000d93          	li	s11,0
80000174:	03be7db3          	remu	s11,t3,s11
80000178:	01b12023          	sw	s11,0(sp)
8000017c:	00100f13          	li	t5,1
80000180:	00100e93          	li	t4,1
80000184:	03df7eb3          	remu	t4,t5,t4
80000188:	01d12223          	sw	t4,4(sp)
8000018c:	00100193          	li	gp,1
80000190:	fff00f93          	li	t6,-1
80000194:	03f1ffb3          	remu	t6,gp,t6
80000198:	01f12423          	sw	t6,8(sp)
8000019c:	00100413          	li	s0,1
800001a0:	80000237          	lui	tp,0x80000
800001a4:	fff20213          	addi	tp,tp,-1 # 7fffffff <_end+0xffffdf2f>
800001a8:	02447233          	remu	tp,s0,tp
800001ac:	00412623          	sw	tp,12(sp)
800001b0:	00100593          	li	a1,1
800001b4:	800004b7          	lui	s1,0x80000
800001b8:	0295f4b3          	remu	s1,a1,s1
800001bc:	00912823          	sw	s1,16(sp)
800001c0:	00002117          	auipc	sp,0x2
800001c4:	e6810113          	addi	sp,sp,-408 # 80002028 <test_3_res>
800001c8:	fff00693          	li	a3,-1
800001cc:	00000613          	li	a2,0
800001d0:	02c6f633          	remu	a2,a3,a2
800001d4:	00c12023          	sw	a2,0(sp)
800001d8:	fff00793          	li	a5,-1
800001dc:	00100713          	li	a4,1
800001e0:	02e7f733          	remu	a4,a5,a4
800001e4:	00e12223          	sw	a4,4(sp)
800001e8:	fff00893          	li	a7,-1
800001ec:	fff00813          	li	a6,-1
800001f0:	0308f833          	remu	a6,a7,a6
800001f4:	01012423          	sw	a6,8(sp)
800001f8:	fff00993          	li	s3,-1
800001fc:	80000937          	lui	s2,0x80000
80000200:	fff90913          	addi	s2,s2,-1 # 7fffffff <_end+0xffffdf2f>
80000204:	0329f933          	remu	s2,s3,s2
80000208:	01212623          	sw	s2,12(sp)
8000020c:	fff00a93          	li	s5,-1
80000210:	80000a37          	lui	s4,0x80000
80000214:	034afa33          	remu	s4,s5,s4
80000218:	01412823          	sw	s4,16(sp)
8000021c:	00002117          	auipc	sp,0x2
80000220:	e2010113          	addi	sp,sp,-480 # 8000203c <test_4_res>
80000224:	80000bb7          	lui	s7,0x80000
80000228:	fffb8b93          	addi	s7,s7,-1 # 7fffffff <_end+0xffffdf2f>
8000022c:	00000b13          	li	s6,0
80000230:	036bfb33          	remu	s6,s7,s6
80000234:	01612023          	sw	s6,0(sp)
80000238:	80000cb7          	lui	s9,0x80000
8000023c:	fffc8c93          	addi	s9,s9,-1 # 7fffffff <_end+0xffffdf2f>
80000240:	00100c13          	li	s8,1
80000244:	038cfc33          	remu	s8,s9,s8
80000248:	01812223          	sw	s8,4(sp)
8000024c:	80000db7          	lui	s11,0x80000
80000250:	fffd8d93          	addi	s11,s11,-1 # 7fffffff <_end+0xffffdf2f>
80000254:	fff00d13          	li	s10,-1
80000258:	03adfd33          	remu	s10,s11,s10
8000025c:	01a12423          	sw	s10,8(sp)
80000260:	80000eb7          	lui	t4,0x80000
80000264:	fffe8e93          	addi	t4,t4,-1 # 7fffffff <_end+0xffffdf2f>
80000268:	80000e37          	lui	t3,0x80000
8000026c:	fffe0e13          	addi	t3,t3,-1 # 7fffffff <_end+0xffffdf2f>
80000270:	03cefe33          	remu	t3,t4,t3
80000274:	01c12623          	sw	t3,12(sp)
80000278:	80000fb7          	lui	t6,0x80000
8000027c:	ffff8f93          	addi	t6,t6,-1 # 7fffffff <_end+0xffffdf2f>
80000280:	80000f37          	lui	t5,0x80000
80000284:	03efff33          	remu	t5,t6,t5
80000288:	01e12823          	sw	t5,16(sp)
8000028c:	00002117          	auipc	sp,0x2
80000290:	dc410113          	addi	sp,sp,-572 # 80002050 <test_5_res>
80000294:	80000237          	lui	tp,0x80000
80000298:	00000193          	li	gp,0
8000029c:	023271b3          	remu	gp,tp,gp
800002a0:	00312023          	sw	gp,0(sp)
800002a4:	800004b7          	lui	s1,0x80000
800002a8:	00100413          	li	s0,1
800002ac:	0284f433          	remu	s0,s1,s0
800002b0:	00812223          	sw	s0,4(sp)
800002b4:	80000637          	lui	a2,0x80000
800002b8:	fff00593          	li	a1,-1
800002bc:	02b675b3          	remu	a1,a2,a1
800002c0:	00b12423          	sw	a1,8(sp)
800002c4:	80000737          	lui	a4,0x80000
800002c8:	800006b7          	lui	a3,0x80000
800002cc:	fff68693          	addi	a3,a3,-1 # 7fffffff <_end+0xffffdf2f>
800002d0:	02d776b3          	remu	a3,a4,a3
800002d4:	00d12623          	sw	a3,12(sp)
800002d8:	80000837          	lui	a6,0x80000
800002dc:	800007b7          	lui	a5,0x80000
800002e0:	02f877b3          	remu	a5,a6,a5
800002e4:	00f12823          	sw	a5,16(sp)
800002e8:	0ff0000f          	fence
800002ec:	00100193          	li	gp,1
800002f0:	00000073          	ecall

800002f4 <end_testcode>:
800002f4:	c0001073          	unimp
	...

Disassembly of section .tohost:

80001000 <tohost>:
	...

80001100 <fromhost>:
	...

Disassembly of section .data:

80002000 <begin_signature>:
80002000:	ffff                	0xffff
80002002:	ffff                	0xffff
80002004:	ffff                	0xffff
80002006:	ffff                	0xffff
80002008:	ffff                	0xffff
8000200a:	ffff                	0xffff
8000200c:	ffff                	0xffff
8000200e:	ffff                	0xffff
80002010:	ffff                	0xffff
80002012:	ffff                	0xffff

80002014 <test_2_res>:
80002014:	ffff                	0xffff
80002016:	ffff                	0xffff
80002018:	ffff                	0xffff
8000201a:	ffff                	0xffff
8000201c:	ffff                	0xffff
8000201e:	ffff                	0xffff
80002020:	ffff                	0xffff
80002022:	ffff                	0xffff
80002024:	ffff                	0xffff
80002026:	ffff                	0xffff

80002028 <test_3_res>:
80002028:	ffff                	0xffff
8000202a:	ffff                	0xffff
8000202c:	ffff                	0xffff
8000202e:	ffff                	0xffff
80002030:	ffff                	0xffff
80002032:	ffff                	0xffff
80002034:	ffff                	0xffff
80002036:	ffff                	0xffff
80002038:	ffff                	0xffff
8000203a:	ffff                	0xffff

8000203c <test_4_res>:
8000203c:	ffff                	0xffff
8000203e:	ffff                	0xffff
80002040:	ffff                	0xffff
80002042:	ffff                	0xffff
80002044:	ffff                	0xffff
80002046:	ffff                	0xffff
80002048:	ffff                	0xffff
8000204a:	ffff                	0xffff
8000204c:	ffff                	0xffff
8000204e:	ffff                	0xffff

80002050 <test_5_res>:
80002050:	ffff                	0xffff
80002052:	ffff                	0xffff
80002054:	ffff                	0xffff
80002056:	ffff                	0xffff
80002058:	ffff                	0xffff
8000205a:	ffff                	0xffff
8000205c:	ffff                	0xffff
8000205e:	ffff                	0xffff
80002060:	ffff                	0xffff
80002062:	ffff                	0xffff

80002064 <test_6_res>:
80002064:	ffff                	0xffff
80002066:	ffff                	0xffff
80002068:	ffff                	0xffff
8000206a:	ffff                	0xffff
8000206c:	ffff                	0xffff
8000206e:	ffff                	0xffff
80002070:	ffff                	0xffff
80002072:	ffff                	0xffff
80002074:	ffff                	0xffff
80002076:	ffff                	0xffff

80002078 <test_7_res>:
80002078:	ffff                	0xffff
8000207a:	ffff                	0xffff
8000207c:	ffff                	0xffff
8000207e:	ffff                	0xffff
80002080:	ffff                	0xffff
80002082:	ffff                	0xffff
80002084:	ffff                	0xffff
80002086:	ffff                	0xffff
80002088:	ffff                	0xffff
8000208a:	ffff                	0xffff

8000208c <test_8_res>:
8000208c:	ffff                	0xffff
8000208e:	ffff                	0xffff
80002090:	ffff                	0xffff
80002092:	ffff                	0xffff
80002094:	ffff                	0xffff
80002096:	ffff                	0xffff
80002098:	ffff                	0xffff
8000209a:	ffff                	0xffff
8000209c:	ffff                	0xffff
8000209e:	ffff                	0xffff

800020a0 <test_9_res>:
800020a0:	ffff                	0xffff
800020a2:	ffff                	0xffff
800020a4:	ffff                	0xffff
800020a6:	ffff                	0xffff
800020a8:	ffff                	0xffff
800020aa:	ffff                	0xffff
800020ac:	ffff                	0xffff
800020ae:	ffff                	0xffff
800020b0:	ffff                	0xffff
800020b2:	ffff                	0xffff

800020b4 <test_10_res>:
800020b4:	ffff                	0xffff
800020b6:	ffff                	0xffff
800020b8:	ffff                	0xffff
800020ba:	ffff                	0xffff
800020bc:	ffff                	0xffff
800020be:	ffff                	0xffff
800020c0:	ffff                	0xffff
800020c2:	ffff                	0xffff
800020c4:	ffff                	0xffff
800020c6:	ffff                	0xffff
	...
